:100000000C94CD010C9414020C9414020C94140260
:100010000C9414020C9414020C9414020C94140208
:100020000C9414020C9414020C94551D0C94111D84
:100030000C94521E0C9414020C9414020C9414028E
:100040000C9414020C9414020C9414020C941402D8
:100050000C9414020C942E1E0C9414020C94140292
:100060000C9414020C9414020C9414020C941402B8
:100070000C9414020C9414020C9414020C941402A8
:100080000C9414020C9414020C9414020C94140298
:100090000C9414020C9414020C9414020C94140288
:1000A0000C9414020C9414020C941402076342364C
:1000B000B79BD8A71A39685618AEBAAB558C1D3CF9
:1000C000B7CC5763BD6DEDFD753EF6177231BF00BD
:1000D0000000803F05A84CCDB2D44EB93836A902F5
:1000E0000C50B9918688083CA6AAAA2ABE00000036
:1000F000803F0000C10101004341000000000000FA
:10010000000000000000000000000000FFFF0000F1
:100110000000000000FF000000FF000000000000E1
:10012000000000000000000000000000FFFF0000D1
:100130000000000000FF000000FFFFFFFFFFFFFFC7
:10014000FFFF000000FF0000FF000000FF00FFFFB6
:10015000FFFF0000FF000000FF00FFFFFFFFFFFFA9
:10016000FFFF000000FF0000FF000000FF00FFFF96
:10017000FFFF0000FF000000FF00E100040000009E
:10018000000000000000000000000000000000006F
:10019000000000000000000000000000000000005F
:1001A00000000000000000000000E100040000006A
:1001B000000000000000000000000000000000003F
:1001C000000000000000000000000000000000002F
:1001D0000000000000000000000006060203050009
:1001E00003030606020305000303A65D0000AB5DE2
:1001F000AA5DA95D0000A85DA75DA65D0000AB5DDE
:10020000AA5DA95D0000A85DA75D0005010902A126
:100210000185020901A10005091901290815002518
:100220000195087501810205010930093115812503
:100230007F95027508810609381581257F9501751E
:10024000088106050C0A38021581257F950175087D
:100250008106C0C005010980A101850319012AB7E3
:1002600000150126B700950175108100C0050C0925
:1002700001A101850419012AA002150126A00295F9
:100280000175108100C005010906A101050719E0EB
:1002900029E715002501950875018102950175086A
:1002A00081010507190029FF150026FF0095067535
:1002B0000881000508190129059505750191029528
:1002C0000175039101C009027800040100A0FA0938
:1002D0000400000103010100092111010001224075
:1002E000000705810308000A09040100010300005A
:1002F00000092111010001227B0007058203200073
:100300000A080B02020202010009040200010202B3
:100310000100052400100104240202052406020342
:10032000070583030800FF09040300020A00000018
:1003300007050502100005070584021000051201DB
:100340000002EF0201083035010001000102000146
:100350002A03430068006F006E006B0065007200A6
:100360006B0065007900730020004F007200690087
:10037000670069006E0061006C0000001803430014
:1003800068006F006E006B00650072006B00650016
:100390007900730000000403090411241FBECFEF8D
:1003A000DAE0DEBFCDBF04B603FE27C08091CC04E7
:1003B0009091CD04A091CE04B091CF048730904BA2
:1003C000A740B04BD1F41092CC041092CD041092FF
:1003D000CE041092CF0414BE84B7877F84BF0FB6BB
:1003E000F894A895809160008861809360001092D5
:1003F00060000FBEE0E0F8E3099513E0A0E0B1E093
:10040000E8EBFFE402C005900D92A439B107D9F7DB
:1004100024E0A4E9B3E001C01D92AC3CB207E1F7CF
:100420000E94791E0C9493270C940000E8EDF0E0F4
:1004300080818E7F80831092E2001092DA00109209
:10044000E100A0EEB0E08C9181608C9380818F7789
:10045000808319BCA7EDB0E08C918E7F8C93808156
:100460008F7E808310923D0408952091E4003091A6
:10047000E50095E6A9012091EC00822F817020FF14
:1004800006C08091E80080FF06C080E008952091BA
:10049000E80022FD1AC080915304882389F085303A
:1004A00089F08091EB0085FD0FC02091E400309130
:1004B000E50042175307F9F29150E1F684E0089500
:1004C00082E0089583E0089581E0089580915304C7
:1004D000843061F580915D0190915E01A0915F0192
:1004E000B0916001892B8A2B8B2B01F180914A01FD
:1004F0008F708093E9009091F3008091F200892B36
:1005000011F480E008959091E8008091E8008E77E2
:100510008093E80095FDF5CF0E943502811107C058
:100520009091E8009E779093E800089582E0089506
:10053000EF92FF920F931F93CF937C018B010E9448
:100540003502C82F811117C08091E80085FD0BC0CE
:100550008091E8008E778093E8000E94350288231E
:1005600099F3C82F08C0F70181917F018093F100B2
:100570000150110949F78C2FCF911F910F91FF90D6
:10058000EF90089580914B0487FF13C08091E8009D
:1005900082FF06C08091E8008B778093E80004C05A
:1005A000809153048111F2CF0895809153048823E0
:1005B000D9F38091E80080FFF8CF8091E8008E7732
:1005C000ECCF982F9093E900242F762F50E08917D5
:1005D00031F07091EC002091ED005091F00021FD80
:1005E00007C09F5F973071F78093E90081E008951D
:1005F0003091EB003E7F3093EB003091ED003D7F7A
:100600003093ED003091EB0031603093EB0070934C
:10061000EC002093ED005093F0002091EE0027FDB8
:10062000E0CF80E00895CF92DF92EF92FF920F9398
:100630001F93CF93DF93C8EDD0E088818F7E8883AE
:10064000E7EDF0E080818160808384E082BF81E01B
:1006500080933D0488818E7F888302EE10E0F8014C
:1006600010821092DA0081EEC82ED12CF601108291
:1006700088818F77888388818068888388818F7D4F
:10068000888319BC1092530410924A0410924904B2
:100690001092480490EEE92EF12CF70180818B7FB7
:1006A000808388818160888342E060E080E00E94EE
:1006B000E102F60180818E7F8083F8018081816074
:1006C0008083808188608083F70180818E7F808332
:1006D000888180618883DF91CF911F910F91FF9076
:1006E000EF90DF90CF900895FC018091510490919C
:1006F000520486179707A0F06115710529F49091AF
:10070000E8009E779093E80090E06115710551F440
:10071000911108C08091E80082FF34C080E0089504
:10072000BC01F2CF809153048823C1F18530C1F11F
:100730008091E80083FD30C08091E80082FDEACF1F
:100740008091E80080FFE1CF8091F3002091F200DA
:10075000382F6115710519F02830310558F091E0F6
:100760002830310509F090E02091E8002E772093A1
:10077000E800CBCF81918093F100615071092F5F28
:100780003F4FE7CF80915304882341F0853041F0FB
:100790008091E80083FFBECF81E0089582E0089554
:1007A00083E00895089580913F04089587E797E7CF
:1007B000909301088093000888E19AE00FB6F894BE
:1007C000A895809360000FBE90936000FFCF9C01BE
:1007D0004FB7F8948091360490913704A091380473
:1007E000B09139044FBF821B930B08952FB7F89433
:1007F0008091360490913704A0913804B091390467
:100800002FBF0895209133043091340428173907FD
:1008100071F09093340480933304E0913104F091AB
:100820003204309721F00084F185E02D0994089579
:1008300020912F04309130042817390771F09093DC
:10084000300480932F04E0913104F091320430970A
:1008500021F00680F781E02D09940895E09131049C
:10086000F0913204309721F00190F081E02D09944D
:1008700080E00895FA01623039F41686848195810A
:10088000820F931F908787830895FA01623039F4AD
:10089000168684819581820F931F908787830895A0
:1008A000FA016250770B6230710548F484819581BA
:1008B00096958795820F931F908787830895168654
:1008C0000895FA01623019F0633059F00895848177
:1008D0009581280F391F30872783168681E0858709
:1008E000089528513C4F308727830895623039F4AA
:1008F000FA0184819581820F931F908787830895E1
:10090000FA01623019F0633051F0089584819581C5
:10091000280F391F3087278381E085870895285164
:100920003C4F30872783089508950895CF92DF9232
:10093000EF92FF920F931F93CF93DF93F82EE62E43
:1009400087E08F1540F10F2D10E0EFE0FE9EE001F3
:100950001124CC5ADB4FE881E25084E9C82E84E0B0
:10096000D82EE63038F4F0E0EE0FFF1FE158FC4FD0
:10097000C080D1800E94F6039C01AE016E2D8F2DA8
:10098000F60109958FE0809FF001819FF00D112401
:10099000EC5AFB4FE186DF91CF911F910F91FF90B1
:1009A000EF90DF90CF900895AF92BF92CF92DF92F9
:1009B000EF92FF920F931F93CF93DF93F82EE62EC3
:1009C000E901493C08F048EC842F242FEE2009F47B
:1009D00062C02E2D30E0042F10E056E0F59EC001DD
:1009E0001124EFEFF0E0BF010E942E238F2D90E045
:1009F000880F991F55E5569FD001579FB00D1124C0
:100A00008A1B9B0B982F990F980FDF01A21BB30B2A
:100A1000A09F6001A19FD00CB09FD00C11248D2D00
:100A2000E99ED0011124AB2FBB277F01EA1AFB0AF4
:100A3000E09ED001E19EB00DF09EB00D11245F014B
:100A4000A91AB108A29E7001A39EF00CB29EF00CF0
:100A50001124EF2CFF24EE19FF09E09F9001E19F84
:100A6000300DF09F300D1124932F6230710509F184
:100A700048F46115710569F061307105F1F09D2D43
:100A80008B2F07C064307105D9F0F0F06630710526
:100A9000B1F7242F492F298348838A83DF91CF918F
:100AA0001F910F91FF90EF90DF90CF90BF90AF908C
:100AB0000895942F4D2D832FECCF942F4B2FE9CFFA
:100AC0009D2D842F432FE5CF842F4D2D9B2FE1CFDC
:100AD0000E94F6039C019091290480912A04982B8E
:100AE00021F0309326042093250490912B048091CB
:100AF0002C04982B21F03093240420932304E091BC
:100B00003104F0913204309749F082E08093270459
:100B10000480F581E02D87E294E0099408954091E6
:100B200029048D3E59F480912A0487FF0DC010924C
:100B30002A0441110BC01092210408C08E3E81F49A
:100B400080912A0418169CF3442381F080912B0491
:100B500090912C04892B09F05AC01092200408951A
:100B60008F3E49F447FFF0CF1092290480912A0468
:100B70008111ECCFE0CF803F19F41416ACF3E4CF31
:100B800090912B04893F29F41916F4F610922B0446
:100B9000DBCF8A3F19F497FFD7CFF8CF90912C0481
:100BA0008B3F29F497FFD0CF10922C04CDCF8C3FF0
:100BB00019F41916CCF3C8CF9FE0980F983090F431
:100BC000815F990B21E030E0B90102C0660F771F09
:100BD0008A95E2F7CB018095909128048923809330
:100BE0002804B2CF8D3F31F4809122048E7F809310
:100BF0002204AACF8E3F21F4809122048D7FF7CF6B
:100C00008F3F09F0A1CF809122048B7FF0CF089510
:100C10008091220480FF0CC06091470170E07595BF
:100C20006795759567956115710549F1862F08954A
:100C300081FF06C06091470170E075956795F3CF1D
:100C40006091470182FD0BC0909120049923A1F08F
:100C50006091460180914701961738F0682F70E047
:100C60006038710500F38FE70895899FC001112452
:100C700070E00E944223F4CF61E070E0D7CF81E0C2
:100C800008958091220480FF12C06091450185E0A3
:100C9000689FB001112475956795759567956038C3
:100CA0007105A8F561157105A1F1862F089581FFE1
:100CB00009C06091450185E0689FB00111247595D8
:100CC0006795EDCF6091450182FD0AC080912104B6
:100CD0008823D1F09091440160914501891728F053
:100CE00085E0689FB0011124DACF869FB0011124FE
:100CF00085E0869F9001879F300D1124692F70E059
:100D0000C9010E944223CBCF65E070E0CECF8FE7D0
:100D1000089581E008958D3E31F40E944106819549
:100D200080932A0408958E3E19F40E944106F8CF5C
:100D30008F3E31F40E9441068195809329040895E5
:100D4000803F19F40E944106F8CF893F29F40E94A0
:100D5000080680932B0408958A3F21F40E94080618
:100D60008195F7CF8B3F31F40E94080681958093DF
:100D70002C0408958C3F19F40E940806F8CF9FE0D8
:100D8000980F983070F4815F990B21E030E001C03A
:100D9000220F8A95EAF780912804822B80932804F9
:100DA00008958D3F31F48091220481608093220464
:100DB00008958E3F21F4809122048260F7CF8F3F07
:100DC000B9F7809122048460F1CF80E00895F8940F
:100DD000E82FE295EF70F0E031A1282F2F7081E02D
:100DE00090E001C0880F2A95EAF7982F90959323F9
:100DF00091A392A1892B82A37894089582389105BA
:100E000091F1C0F58133910509F490C028F589323C
:100E1000910509F484C08A32910509F48EC08115C8
:100E200020E5920708F0A6C0811540E4940708F079
:100E30002CC18F3B910508F087C0883A910508F0D6
:100E400017C1853A910508F00AC18430910500F573
:100E500081309105E9F03CC08533910509F458C013
:100E600089339105E1F62091B603237089F080EE75
:100E700090E00895833E910571F158F4803E91050C
:100E8000E9F0823E910559F62091B60322FD1EC07D
:100E90000895863E910551F1873E910571F1843E9A
:100EA000910509F0BCCF2091B70321FFF1CF8091CC
:100EB000B60384FD0DC087EE90E008952091B6033F
:100EC00020FD0FC13091B70330FFE2CF24FF0CC1EA
:100ED00090E080E0DDCF2091B60322FD08C1309183
:100EE000B70330FDC4CF24FFD3CFF2CF2091B60398
:100EF00023FFCECF24FDECCFDECF2091B60323FD20
:100F0000F9C03091B70331FFEECF84EE90E0089541
:100F10002091B60325FFBCCF89E290E0089520918F
:100F2000B60325FFB5CF85E390E008952091B60381
:100F300026FFAECF8AE290E008952091B60326FF07
:100F4000A7CF81E390E008958F3F910509F060F409
:100F50008D3E910508F097C09C01215E3109273034
:100F6000310508F495CFB4CF811520E2920708F43B
:100F70008FCFAECF811543E5940740F5811522E56B
:100F8000920708F08AC0811541E5940708F080C0F7
:100F90009C0164E0369527956A95E1F7922F93704E
:100FA000282F26952695237040E2249F9001112436
:100FB000392B482F437081E090E002C0880F991FC1
:100FC0004A95E2F7822B932B9C680895811529E5B9
:100FD0009207F0F4811548E5940708F06FC0811579
:100FE00024E5920708F074CFAC014370552721E047
:100FF00030E002C0220F331F4A95E2F786958695AE
:1010000040E2849FC0011124822B932B9A6808959B
:1010100081154AE5940708F05BCF282F2F70409187
:10102000B60342FF05C083FF4EC0282F27702460FF
:101030003091B70330FF07C0322F3871383009F0D4
:1010400048C0277F216044FD277E34E09695879530
:101050003A95E1F78F70982F822F90690895855AFD
:10106000E82FF0E0E65CFC4F808190E0906408950A
:10107000885AE82FF0E0EE0FFF1FE35CFC4F808101
:10108000918194640895906508959F70906A089581
:10109000982F8827816F906A0895AC014370552777
:1010A00021E030E002C0220F331F4A95E2F7869517
:1010B000869540E2849FC001112484CF982F882711
:1010C000806F906A089582FFB3CF282F2B7028601D
:1010D000AFCF322F3171313009F0B5CF2E7F28607C
:1010E000B2CF89E390E0089583EE90E0089582EE18
:1010F00090E0089586EE90E008958091AA03909183
:10110000A903892B9091A803892B80939603E091E2
:101110003104F0913204309731F00280F381E02DF8
:1011200086E993E009940895E8E9F3E09191891341
:1011300003C0DF0111971C9293E0EE39F907B1F774
:101140000895A8E9B3E0EFEF90E02D91821751F0F8
:10115000EF3F19F4211101C0E92F9F5F9630A9F7E5
:10116000EF3F09F408950E2E000CFF0BEA56FC4FDA
:10117000828308958F929F92AF92BF92DF92EF92F7
:10118000FF920F931F93CF93DF938090B2039090C1
:10119000B303A090B403B090B5034091AB0350915A
:1011A000AC036091AD037091AE03842A952AA62A00
:1011B000B72ACFE1D0E0E92EF12C082F10E0DC2E89
:1011C000D501C4010C2E04C0B695A79597958795B7
:1011D0000A94D2F780FD10C0219788F7D12C8D2D6D
:1011E000DF91CF911F910F91FF90EF90DF90BF9013
:1011F000AF909F908F900895FE01EE0FFF1FEE0DB0
:10120000FF1DEE0FFF1FEE0FFF1FE00FF11FEE0F90
:10121000FF1FE651FE4F859194910E94FE060197B3
:10122000D9F2DDCF990F990F890F982F9770869576
:101230008695869525E0829FF0011124ED55FC4F9F
:1012400050E040E080E0219130E0092E02C0369568
:1012500027950A94E2F721703327042E01C0220F4C
:101260000A94EAF7822B4F5F5F4F4530510559F7DB
:101270000895990F990F890F982F977041E001C039
:10128000440F9A95EAF786958695869595E0899F0D
:10129000F0011124ED55FC4F30E020E070E0519159
:1012A000DF011197CB01022E02C0969587950A9413
:1012B000E2F7817081958527842385278C932F5FA2
:1012C0003F4F2530310559F7089590E080E00E94A6
:1012D000180490E080E00E9402041092A90310928A
:1012E000A8030E947D0886E0E7E2F4E0DF011D929A
:1012F0008A95E9F71092210410922004109222049A
:101300000C9468056093AB037093AC038093AD03BA
:101310009093AE030C946509882309F459C0823870
:1013200071F40E942E0481FF53C089E30E94A1083A
:101330000E947D0889E30E9494080C947D088338FC
:1013400059F40E942E0480FF43C083E50E94A10847
:101350000E947D0883E5EFCF843859F40E942E0463
:1013600082FF36C087E40E94A1080E947D0887E4BE
:10137000E2CF9CEF980F913AF0F290E2980F9830FC
:1013800088F4877021E030E0A90102C0440F551FA6
:101390008A95E2F7CA0180959091AA0389238093E8
:1013A000AA03CBCF9BE5980F933020F490E080E028
:1013B0000C94180498E5980F973120F490E080E0A1
:1013C0000C9402048D3E20F00E948F050C94680559
:1013D00008952091BF032230E9F118F4213041F043
:1013E0000895233009F445C0243009F46CC00895F1
:1013F0008333910509F4B3C0B0F48431910509F445
:10140000A8C048F48430910509F4A0C0803191054A
:1014100009F499C008958A31910541F18D31910502
:1014200009F48EC008958633910509F495C048F4F7
:101430008433910509F478C08533910509F477C0A8
:1014400008958733910509F48DC08833910509F417
:101450008CC008958D31910509F46CC08D329105D1
:1014600009F46BC08C31910509F084C08DE190E0E6
:1014700008958D31910509F463C090F48031910590
:1014800009F461C028F48430910509F45FC008951F
:101490008431910509F45DC08A31910539F30895CD
:1014A0008633910509F458C028F48333910509F473
:1014B00056C008958733910509F454C088339105C7
:1014C00009F453C00895FC013797ED32F10508F097
:1014D00051C0EB56F84D0C94562383E190E00895EB
:1014E0008AE090E008958DE090E008958FE090E02C
:1014F000089588E190E0089585E190E0089586E1FF
:1015000090E0089587E190E0089587E090E00895E5
:1015100088E090E008958CE090E0089582E190E00A
:1015200008958EE090E0089585E390E008958FE1BE
:1015300094E008958CE190E0089586E194E00895A8
:101540008AE190E0089586E390E0089584E190E0D8
:10155000089584E090E0089583E390E0089580E1A9
:1015600090E0089583E392E008958EE192E008957B
:1015700089E090E008958091B2039091B303A09127
:10158000B403B091B5030097A105B10541F080FD0A
:1015900006C0B695A795979587958170089580E0C8
:1015A0000895CF93DF93883018F59FEF960F97300B
:1015B000F8F49FE0899FD0011124ED01CC5ADB4F54
:1015C0006883AB5ABB4F96E0FA0101900D929A9551
:1015D000E1F718861F821986FA0190819A87918116
:1015E0009B8792819C8761E0DF91CF910C94960458
:1015F000DF91CF91089580933A0470933C046093F7
:101600003B0480915304843001F582E08093E9002B
:101610008FEF9091E800815095FD06C095ED9A9569
:10162000F1F700008111F5CF8091E80085FF0DC032
:1016300050E040E063E070E08AE394E00E949802AA
:101640008091E8008E778093E8000895BC0184E0E3
:101650000C94FB0ABC0183E00C94FB0A9C0182E021
:101660008093E9009FEF8091E800915085FD06C0CE
:1016700085ED8A95F1F700009111F5CF8091E80092
:1016800085FF0CC050E040E066E070E0C9010E94B8
:1016900098028091E8008E778093E8000895CF93B8
:1016A000DF93EC0181E08093E9008FEF9091E800F7
:1016B000815095FD06C095ED9A95F1F700008111D6
:1016C000F5CF8091E80085FF14C050E040E068E06D
:1016D00070E0CE010E9498028091E8008E7780939E
:1016E000E80088E0FE01A0E4B4E001900D928A9544
:1016F000E1F7DF91CF9108958830E8F4E82FF0E02A
:10170000EE53F84D83E0489FA00111240C9456231A
:10171000269A85B1806495B19F7B2FB7F894460FC8
:10172000571F6417750741F42FBF8FE594E00197A9
:10173000F1F700C000000895FB013191BF01E8E01E
:1017400085B9000000C037FF95B9330F000000C015
:1017500000C000C095B900C0EA9591F7E2CF229A87
:1017600085B1846095B19B7F2FB7F894460F571FC2
:1017700064177507C9F2FB013191BF01E8E085B933
:10178000000000C037FF95B9330F000000C000C053
:1017900000C095B900C0EA9591F7EACF239A85B1C8
:1017A000886095B1977F2FB7F894460F571F64173D
:1017B000750709F4B9CFFB013191BF01E8E085B9A4
:1017C000000000C037FF95B9330F000000C000C013
:1017D00000C095B900C0EA9591F7E9CF219A85B18B
:1017E000826095B19D7F2FB7F894460F571F6417FD
:1017F000750709F499CFFB013191BF01E8E085B984
:10180000000000C037FF95B9330F000000C000C0D2
:1018100000C095B900C0EA9591F7E9CF259A85B146
:10182000806295B19F7D2FB7F894460F571F6417BC
:10183000750709F479CFFB013191BF01E8E085B963
:10184000000000C037FF95B9330F000000C000C092
:1018500000C095B900C0EA9591F7E9CF249A85B107
:10186000806195B19F7E2FB7F894460F571F64177C
:10187000750709F459CFFB013191BF01E8E085B943
:10188000000000C037FF95B9330F000000C000C052
:1018900000C095B900C0EA9591F7E9CF6E9A8EB174
:1018A00080649EB19F7B2FB7F894460F571F641733
:1018B000750709F439CFFB013191BF01E8E08EB91A
:1018C000000000C037FF9EB9330F000000C000C009
:1018D00000C09EB900C0EA9591F7E9CF579A8BB145
:1018E00080689BB19F772FB7F894460F571F6417F6
:1018F000750709F419CFFB013191BF01E8E08BB9FD
:10190000000000C037FF9BB9330F000000C000C0CB
:1019100000C09BB900C0EA9591F7E9CFAF92BF92A2
:10192000CF92DF92FF920F931F93CF93DF93CDB7A8
:10193000DEB7E0970FB6F894DEBF0FBECDBF162F0F
:10194000042FF22E883000F5E82FF0E0E653F84D32
:10195000CE0101966C015E010C9456239DE0A90E08
:10196000B11C96014F2D602F812F0E94D40483E07B
:10197000C80ED11CAC14BD04A1F744E0BE016F5FDA
:101980007F4F80E00E947C0BE0960FB6F894DEBF9C
:101990000FBECDBFDF91CF911F910F91FF90DF90D0
:1019A000CF90BF90AF9008959DE0A90EB11C960115
:1019B0004F2D602F812F0E94D40483E0C80ED11CCC
:1019C000CA14DB04A1F744E0BE016F5F7F4F81E0E2
:1019D000D9CF96E1A90EB11C96014F2D602F812F12
:1019E0000E94D40483E0C80ED11CCA14DB04A1F702
:1019F00047E0BE016F5F7F4F82E0C4CF9DE0A90E3C
:101A0000B11C96014F2D602F812F0E94D40483E0DA
:101A1000C80ED11CCA14DB04A1F744E0BE016F5FFD
:101A20007F4F83E0AFCF9DE0A90EB11C96014F2DF3
:101A3000602F812F0E94D40483E0C80ED11CCA14E9
:101A4000DB04A1F744E0BE016F5F7F4F84E09ACFD3
:101A50009DE0A90EB11C96014F2D602F812F0E9491
:101A6000D40483E0C80ED11CCA14DB04A1F744E0FF
:101A7000BE016F5F7F4F85E085CF90E1A90EB11C5D
:101A800096014F2D602F812F0E94D40483E0C80E51
:101A9000D11CCA14DB04A1F745E0BE016F5F7F4F84
:101AA00086E070CF90E1A90EB11C96014F2D602FFA
:101AB000812F0E94D40483E0C80ED11CCA14DB0419
:101AC000A1F745E0BE016F5F7F4F87E05BCFCF930B
:101AD000DF93EB0199859230C9F49E81992341F0FF
:101AE0002E85291728F060E0DF91CF910C949604A1
:101AF0006A856F5F6A872C854B850E948E0C9A855C
:101B00008981981303C08E858F5F8E87DF91CF9177
:101B10000895FF920F931F93CF93DF93F82EEB015D
:101B20008A018E81882321F09E8560E09817C8F491
:101B30008985823041F08330E1F0DF91CF911F91B0
:101B40000F91FF9008952B814A8169818F2D0E940A
:101B50008E0C8F819885081B190B63E00F3F1F4780
:101B600060F78F2DDF91CF911F910F91FF900C9413
:101B7000960420E040E060E08F2D0E948E0C8F8163
:101B80009885081B190B0F3F1F47B8F68E858F5F8E
:101B90008E8762E0E6CFFF920F931F93CF93DF9380
:101BA000F82EEB018A018985823021F52C854B8541
:101BB0006A858F2D0E948E0C8F8198859801281B35
:101BC000390BC9018F3F9F47A8F49E818C85891BE3
:101BD0008C87981748F060E08F2DDF91CF911F918F
:101BE0000F91FF900C9496044C815D81400F511F22
:101BF00058874F83DF91CF911F910F91FF900895E8
:101C0000FB012381428161810C948E0C7F928F9223
:101C10009F92AF92BF92CF92DF92EF92FF920F937B
:101C20001F93CF93DF93CDB7DEB7E0970FB6F8944D
:101C3000DEBF0FBECDBFF82E8B016A0127E0712CED
:101C4000281728F0E82FF0E0E557FC4F7080F801E6
:101C500081858230B9F0833009F464C0E0960FB614
:101C6000F894DEBF0FBECDBFDF91CF911F910F91D2
:101C7000FF90EF90DF90CF90BF90AF909F908F90AC
:101C80007F9008959E012F5F3F4F5901E12C49013C
:101C9000F8018585E71039C09401F3E08F9F200D8E
:101CA000311D11244FEF60E080E00E94D4044E2DDE
:101CB000B4018F2D0E947C0BF801878190859601DD
:101CC000281B390BC9018F3F9F47A0F485858F5F83
:101CD0006E2D0E9422239587911105C086858F5F06
:101CE000868781E08587F80184819581C80ED91E99
:101CF000D086C782F8019685868163E0981708F43C
:101D0000ADCF8F2D0E949604A9CFE81631F0950132
:101D100040E060E080E00E94D404E39433E0A30E4E
:101D2000B11CB6CF878190859601281B390B2F3FB8
:101D30003F4710F460E0E5CF8C199D096AEF70E031
:101D40000E942E2360FF07C020E040E060E08F2D5E
:101D50000E948E0C83CF9E012F5F3F4FF80143817D
:101D6000628181810E94D4049E012F5F3F4F6901EF
:101D700011E033E0C30ED11C171540F0472DBE0112
:101D80006F5F7F4F8F2D0E947C0B68CF96014FEFC6
:101D900060E080E00E94D4041F5FEBCF8F929F929F
:101DA000AF92BF92CF92DF92EF92FF920F931F9369
:101DB000CF93DF93CDB7DEB7E0970FB6F894DEBFD1
:101DC0000FBECDBFE82E8B016A0127E0F12C28174A
:101DD00028F0E82FF0E0E557FC4FF080F801438150
:101DE000B42EB694B69481858230B1F0833009F474
:101DF0008DC0E0960FB6F894DEBF0FBECDBFDF9169
:101E0000CF911F910F91FF90EF90DF90CF90BF90F7
:101E1000AF909F908F900895878190859601281BA1
:101E2000390BC9018F3F9F47A8F4858590E0019643
:101E30006F2D70E00E9442230097E9F18587F80139
:101E400084859681891B848784819581C80ED91EDB
:101E5000D086C7829E012F5F3F4F40E060E080E068
:101E60000E94D404F801858521E030E02C0F3D1F4D
:101E7000F3E08F9F200D311D1124F8014485638507
:101E800082850E94D404CC24C394D12C93E0A92E43
:101E9000CF1498F04F2DBE016F5F7F4F8E2D0E94A3
:101EA0007C0BF801848563E08B1508F0A2CF8E2DA2
:101EB0000E9496049ECF81E0C1CFF80125852C0DAC
:101EC0008485869590E0B6010E944223362F562FD6
:101ED0002F1530F0822F6F2D0E94222321E0290F31
:101EE00081E090E08C0F9D1F2A9D800D911D112493
:101EF0004B2DB51608F4432F9C01F80163858285AC
:101F00000E94D404FFEFCF1ADF0AC2CF9E012F5FD9
:101F10003F4F628181810E94D4049E012F5F3F4F19
:101F20004901AA24A394F3E08F0E911CAF14A0F0F2
:101F30004F2DBE016F5F7F4F8E2D0E947C0BF801ED
:101F400087819085C81AD90AFFEFCF16FFE7DF0611
:101F500008F04FCF60E0ABCF94014B2DF8016281C8
:101F600081810E94D404A394DECFCF93C091E90075
:101F70002091EC00922F917020FD90E82091590162
:101F800020FF12C0CF70C92B90914A019F7090938F
:101F9000E9009091EB0090FF04C09091EE0097FD56
:101FA00005C0CF70C093E900CF91089590E02091D3
:101FB000E800915025FD06C025ED2A95F1F70000B7
:101FC0009130A9F78093F10089E491E00E946602C4
:101FD0008091E80080FFE5CF8091E8008E778093C4
:101FE000E800DFCFCF93DF93EC0188810E94B50F2B
:101FF00089810E94B50F8A81DF91CF910C94B50F32
:10200000FC0180810C94B50F1F93CF93DF93172FA2
:10201000D82FC92F862F0E94B50F812F0E94B50F90
:102020008D2F0E94B50F8C2FDF91CF911F910C94B3
:10203000B50FCF93C92F0E94B50F8C2FCF910C9461
:10204000B50FCF92DF92EF92FF92CF93DF930F9273
:10205000CDB7DEB76B017C01C114D104E104F104FA
:1020600009F160FD1FC0DC01CB01B695A7959795DE
:10207000879580FF0DC081E0898383E00E94B50FC2
:1020800081E090E00E941910CE0101960E9400109C
:10209000C701B6010F90DF91CF91FF90EF90DF90D5
:1020A000CF90089580E0E8CF0E9421106093B203A2
:1020B0007093B3038093B4039093B5030C946509B4
:1020C0002F923F924F925F926F927F928F929F9248
:1020D000AF92BF92CF92DF92EF92FF920F931F9336
:1020E000CF93DF93CDB7DEB763970FB6F894DEBF1B
:1020F0000FBECDBF82E00E94B50F0E94BB0A0E94B6
:10210000B50F28E333E0398B288B84EA91E09F8375
:102110008E83EAEEF1E0FD83EC83312C212CE889FB
:10212000F9898191F98BE88B0E94B50F2CE831E099
:102130003F872E8726EF822E20E0922E8C819D8174
:102140000896998788873B862A86EE81FF81FD87DE
:10215000EC878A859B854C969B838A83AC84BD845F
:10216000EE85FF85FB8BEA8B83E0C82ED12CF40132
:10217000EC0DFD1D84910E94B50FF601EE0FFF1FBF
:1021800028853985E20FF31F85919491865A0E9424
:10219000B50FEA89FB89108DF18DF983EA89FB89F6
:1021A000428C538C648C758CE68CF78C812F0E944A
:1021B000B50F212F3981A201B301C70108E00E94A8
:1021C0005E23822F0E94B50F212F3981A201B30116
:1021D000C70100E10E945E23822F0E94B50F212FCC
:1021E0003981A201B301C70108E10E945E23822F59
:1021F0000E94B50F212F3981A201B301C70100E26E
:102200000E945E23822F0E94B50F212F3981A201E7
:10221000B301C70108E20E945E23822F0E94B50F1E
:10222000212F3981A201B301C70100E30E945E237F
:10223000822F0E94B50F212F3981A201B301C7015E
:1022400008E30E945E23822F0E94B50FEA81FB8182
:10225000E650FF4F65917591859194910E9404100D
:10226000EA81FB81E65CFE4F6591759185919491C1
:102270000E940410F501859194910E94B50FF5011B
:102280003296859194910E94B50FF501349685910F
:1022900094910E94B50FF1E0CF1AD1082A893B89A9
:1022A000285031093B8B2A8B36E0A31AB1088A816A
:1022B0009B8104979B838A839FEFC916D90609F0F7
:1022C00056CFEE85FF85B097FF87EE872C853D853D
:1022D000285131093D872C878A859B8540979B87AC
:1022E0008A87C4010497E885F9853897F987E887D4
:1022F00022EF30E02815390511F04C012ACF2E814C
:102300003F81205D3F4F3F832E8330E2230E311CFF
:102310008C819D8140969D838C8390E429163104A5
:1023200009F0FDCEEAE0F2E0849163960FB6F894EE
:10233000DEBF0FBECDBFDF91CF911F910F91FF90F8
:10234000EF90DF90CF90BF90AF909F908F907F9055
:102350006F905F904F903F902F900C94B50F8F929D
:102360009F92AF92BF92CF92DF92EF92FF921F9314
:10237000CF93DF93182FEB018985823009F078C065
:102380008F8198859A01281B390BC9018F3F9F4780
:1023900048F48E858F5F8E878C819D81840F951F79
:1023A00098878F838E81882391F09E85981778F087
:1023B00060E0812FDF91CF911F91FF90EF90DF9030
:1023C000CF90BF90AF909F908F900C9496046F81A8
:1023D0007885641B750B90E080E00E9415256B01E9
:1023E0007C016C817D8190E080E00E9415259B013D
:1023F000AC01C701B6010E943A242BED3FE049E44D
:1024000050E40E94CB260E9438270E94B4246B011E
:102410007C016C8570E090E080E00E9417252EEF33
:102420003CE646E150E40E943A244B015C012DE475
:102430003CED44E75FE3C701B6010E94C8239B015E
:10244000AC01C501B4010E94CB260E94E624262FD0
:102450004B856A85812FDF91CF911F91FF90EF907F
:10246000DF90CF90BF90AF909F908F900C948E0C88
:10247000DF91CF911F91FF90EF90DF90CF90BF90B1
:10248000AF909F908F9008951092AA03E8E9F3E02F
:1024900086E0DF011D928A95E9F70C9465091F9388
:1024A000CF93DF93CDB7DEB7AA970FB6F894DEBF10
:1024B0000FBECDBF8BE494E02091F100FC0121938D
:1024C000CF01F4E083359F07B9F780914C04833046
:1024D00009F4B9C008F04CC0813009F47FC08230E3
:1024E00009F4F9C08091E80083FF9CC02091490164
:1024F00080914F04909150042817190609F092C05A
:1025000080914C04813209F406C108F0F5C0803294
:1025100009F088C080914B04813209F083C080911A
:10252000E800877F8093E8008091E80082FF30C157
:102530003091F1002091F1009091F1008091F10033
:1025400030935D0120935E0190935F018093600161
:102550008091F100809361018091F100809362018C
:102560008091F100809363018091E8008B770BC12B
:102570008A3009F49FC08B3009F482C0893009F099
:10258000B1CF80914B04813209F0ACCF80914F04E0
:1025900090915004029708F0A5CF8091E800877FC2
:1025A0008093E8008091E80082FF38C09091F300AA
:1025B0008091F200029731F48091F100813011F0A6
:1025C000863021F48091F10080933F048091E800EF
:1025D0008B778093E8000E94C20284CF80914B04E5
:1025E000813A09F07FCF8091E800877F8093E800EF
:1025F00080914F0490915004892B61F468E080E44D
:1026000094E070E00E9474038091E8008B778093DF
:10261000E80068CF60E090E080E0F3CF8091530461
:102620008111C0CF8091E80083FF9CC280914B0450
:1026300090914C049A3008F095C2E92FF0E0EE52E8
:10264000F84D0C94562380914B04813A09F04ACFFF
:1026500080914F0490915004892B09F043CF8091D1
:10266000E800877F8093E8008091E80080FFFCCF3E
:10267000809148018093F1008091E8008E77A9CF86
:1026800080914B04813209F02DCF80914F049091BD
:102690005004892B09F026CF8091E800877F809332
:1026A000E8000E94C20280914D04809348010E947C
:1026B000441218CF80914B04813209F013CF8091DE
:1026C000E800877F8093E8000E94C20280914E0458
:1026D00080933E0407CF80914B04813A09F002CFEA
:1026E0008091E800877F8093E8008091E80080FF78
:1026F000FCCF80913E04BECF823209F44EC08332BB
:1027000009F090CF80914B04813209F08BCF8091FA
:10271000E800877F38C080914B04813A09F082CF6E
:102720008091E800877F8093E8008091E80080FF37
:10273000FCCF80915D0190915E01A0915F01B0910D
:1027400060018093F100492F5A2F6B2F7727409318
:10275000F100AD01662777274093F1008B2F992771
:10276000AA27BB278093F100809161018093F1003B
:10277000809162018093F100809163018093F10068
:102780008091E8008E778093E8000E94C2024ACFD1
:10279000809153048111C8CE45CF80914B04813282
:1027A00009F040CF8091E800877F8093E8000E9485
:1027B000C20280914D0490914E0490935A018093EF
:1027C000590130CF803899F0823809F0CBC180911F
:1027D0004F048F70873008F0C5C18093E900809165
:1027E000EB0085FB882780F91092E90006C08091F4
:1027F000480490914904911182609091E800977F7C
:102800009093E8008093F1001092F1008091E8002D
:102810008E77A4C1882309F492C1823009F0A2C145
:1028200080914D04811195C180914F048F702FEFDD
:10283000280F263008F096C18093E9002091EB0024
:1028400020FF87C1933031F48091EB008062809348
:10285000EB007FC19091EB0090619093EB0021E041
:1028600030E001C0220F8A95EAF72093EA00109227
:10287000EA008091EB008860EACF811173C110916A
:102880004D041F778091E3008078812B8093E300D3
:102890008091E800877F8093E8000E94C2028091C7
:1028A000E80080FFFCCF8091E30080688093E30024
:1028B00082E0111183E08093530454C18058823028
:1028C00008F050C180914D0490914E048C3D23E05E
:1028D0009207A1F583E08A838AE289834FB7F8944F
:1028E000DE01139620E03EE051E2E32FF0E050934A
:1028F0005700E49120FF03C0E295EF703F5FEF7057
:102900008E2F90E0EA30C0F0C7968D939D932F5F95
:10291000243159F74FBF8091E800877F8093E8000A
:102920006AE270E0CE0101960E9474038091E80093
:102930008B778093E80016C1C096E7CF40914F0493
:1029400050915004292F33272330310509F444C016
:1029500078F52130310509F46FC088E790E0E6ECA6
:10296000F2E02230310509F0FDC02091E800277F18
:102970002093E8002091510430915204821793076C
:1029800008F49C0140E02115310509F064C04111B3
:1029900062C08091E80082FDC9CF809153048823F2
:1029A00029F2853019F28091E80083FFF2CFBECF83
:1029B00021323105A9F12232310509F0D3C0411588
:1029C000510509F443C04130510509F0CBC08BE7F4
:1029D00090E0EBE0F2E0C9CF992781309105C1F09A
:1029E000009759F0029709F0BDC0E0E5F3E0E491EB
:1029F0008E2F90E0E0E5F3E007C0E6E9F3E0E49134
:102A00008E2F90E0E6E9F3E0009709F4ABC0ADCF7C
:102A1000ECE7F3E0E4918E2F90E0ECE7F3E0F4CF05
:102A20004115510571F04130510509F09BC089E015
:102A300090E0E1EFF2E099CF82E190E0EEE3F3E0A5
:102A400094CF89E090E0E8EDF2E08FCF80E490E071
:102A5000E6E8F2E08ACF80915304882309F466CF38
:102A6000853009F463CF8091E80083FD5FCF8091CA
:102A7000E80082FD8ECF8091E80080FF84CF9091A6
:102A8000F3008091F2002115310519F0883091058D
:102A900050F041E0089709F040E08091E8008E771F
:102AA0008093E80070CF44914093F100319621501B
:102AB00031090196E8CF803809F054C08091E800D0
:102AC000877F8093E80080914A048093F1009ECE36
:102AD000811148C010914D04123008F043C080911C
:102AE000E800877F8093E80010934A040E94C202A6
:102AF000112311F084E005C08091E30087FDFACF37
:102B000081E08093530442E061EC81E00E94E102A5
:102B100042E261EC82E00E94E10242E061EC83E08B
:102B20000E94E10242E160E885E00E94E10242E1A8
:102B300061E884E00E94E1028091530413C0809117
:102B40004D04813079F481E0933009F080E0809386
:102B500049041092E9008091E800877F8093E800A3
:102B60000E94C2028091E80083FF0AC08091E800C1
:102B7000877F8093E8008091EB0080628093EB0078
:102B8000AA960FB6F894DEBF0FBECDBFDF91CF91EE
:102B90001F9108950F931F9341E050E060E070E0B3
:102BA0008A019B0104C0000F111F221F331F8A9549
:102BB000D2F7C901B8010E9482091F910F910C94AC
:102BC00044120E9444122FEF84E39CE02150804085
:102BD0009040E1F700C000000E94D603CF9384E04C
:102BE00090E00E948623C82F82E290E00E94862314
:102BF000982F8C2FCF9108959F92AF92BF92CF9232
:102C0000DF92EF92FF920F931F93CF93DF9300D049
:102C1000CDB7DEB71A8219828BE6E82E83E0F82E54
:102C200010E000E0CC24C394D12C21E7A22E23E0B5
:102C3000B22EF70181917F018F3F09F445C0F894CE
:102C4000E82FE295EF70F0E021A18F70A60102C09D
:102C5000440F551F8A95E2F7CA01922F982B91A332
:102C600092A18095892382A3789400C0EDE6F3E0D9
:102C7000912C31E021912F3F09F45DC0A22FA29544
:102C8000AF70B0E090968C9190E02F7002C0959557
:102C900087952A95E2F780FD4EC0832F982A330F3F
:102CA000AE16BF0639F7F701319780818F3F11F0DB
:102CB0000E94E70650EA5A95F1F7E1E0F0E0EC0FE8
:102CC000FD1FE00FF11F90820130110589F542E0F0
:102CD00050E0BE016F5F7F4F8CEB93E00E94792341
:102CE00011E0009709F410E0892B39F189819A816C
:102CF0009093BD038093BC0381E08093B1030E9455
:102D0000F6039093B0038093AF038091AF0390914B
:102D1000B0030E94E7030597A0F08091BC03809365
:102D2000C0038091BD038093C1031092B10309C019
:102D300001E010E07ECF80E0B1CF8091B10381113E
:102D4000E4CF812F0F900F90DF91CF911F910F91C2
:102D5000FF90EF90DF90CF90BF90AF909F9008953D
:102D600069EE7EEF90E080E00E94B22360E082E0B6
:102D700090E00E94942360E083E090E00E9494231E
:102D80001092AB031092AC031092AD031092AE03FD
:102D900060E084E090E00E94942360E082E290E0B2
:102DA0000E94942360E085E090E00E94942360E01C
:102DB00086E090E00E9494236FEF87E090E00E940D
:102DC000942340E050E0BA0188E090E00E94A623FE
:102DD00060E08DE090E00E94942340E050E0BA0172
:102DE00088E190E00E94A62360E087E190E00E94E5
:102DF000942340E050E0BA018CE190E00E94A623C9
:102E000070E060E080E290E00E94B22340E050E099
:102E1000BA0188E190E00E94A62340E050E0BA01A8
:102E20008FE090E00E94A62340E050E0BA0183E1E9
:102E300090E00C94A6238B3109F460C040F58B30F0
:102E400071F078F4863009F442C020F4853059F1ED
:102E500080E00895873009F443C08830C9F781E0E5
:102E60000895803109F458C068F48E3089F7909144
:102E70002E04892F8B7F92FF846080932E0482FD25
:102E800047C0EDCF863159F3893149F3E1CF8A321A
:102E9000D9F058F48732A1F020F48E31C8F28D5168
:102EA00010C08932A9F60E94E115833438F48A33C0
:102EB000F0F5853329F0883391F2CACF833441F697
:102EC00080E00E94CA15CBCF0E94B016C8CF809177
:102ED0002E04807F80932E0481E080932D0408953A
:102EE00090912E04892F8E7F90FF816080932E0415
:102EF00080FDB5CF817F80932E04B1CF90912E04B9
:102F0000892F8D7F91FF826080932E0481FFA7CF50
:102F100080912E048160EFCF90912E04892F877FBE
:102F200093FF886080932E0483FDF2CF98CF89535E
:102F3000C8CFCF93C82F882309F492C08238C1F438
:102F40000E942E0481FD8CC089E30E94A1080E948A
:102F50007D082FEF81EE94E0215080409040E1F712
:102F600000C0000089E30E949408CF910C947D0872
:102F70008338A1F40E942E0480FD72C083E50E9474
:102F8000A1080E947D082FEF81EE94E0215080403F
:102F90009040E1F700C0000083E5E5CF8438A1F45C
:102FA0000E942E0482FD5CC087E40E94A1080E945A
:102FB0007D082FEF81EE94E0215080409040E1F7B2
:102FC00000C0000087E4CFCF8CEF8C0F813A08F06F
:102FD000BDC080912D048130F1F0882391F08230C2
:102FE000A9F110922D04E8E9F3E08191C81709F4E2
:102FF000E1C023E0EE39F207C1F78C2F0E94A1084F
:10300000B4CF8091AA03823271F78C2F0E941B17D4
:10301000811126C0E8CF8091AA038232B1F3C43176
:1030200071F038F4CB3049F0C03161F080E081704C
:10303000EFCFC93221F0C833C9F781E0F8CF109241
:103040002D04F4CF82E080932D04F7CFC93209F428
:103050003FC0E8F4C431E1F128F4C73009F45BC0A3
:10306000CF91089582EE8C0F8A30D0F7CD51C09366
:10307000A203C33009F446C0B0F5C13009F43FC023
:1030800083E491E0C230B1F11092A203E9CFC035E0
:1030900009F454C0B8F48AE0CF3411F7E091A003EA
:1030A000F091A1033097E1F22081082E000C990BDA
:1030B000820F911D8F3F910509F00CF443C08FEFF3
:1030C0008083CECFC135E1F181E0C23539F3C8CF7D
:1030D0008091A203882321F21092A2031092A103EF
:1030E0001092A003BDCFC53099F078F086E491E04E
:1030F000C63051F69093A1038093A003B1CF82E430
:1031000091E0F8CF85E491E0F5CF84E491E0F2CF4F
:1031100087E491E0EFCF8EE18093420182E38093D8
:1031200043018AE08093450184E18093440188E073
:103130008093470188E28093460192CF86EFAECF1D
:103140008FEFACCF97FFBCCF10828ACF80E28C0F7D
:10315000883068F4C77021E030E001C0220FCA95C2
:10316000EAF78091AA03822B8093AA03FECEEBE5B7
:10317000EC0FE33040F4F0E0E65CFC4F808190E03F
:10318000CF910C941804E8E5EC0FE73150F4F0E02F
:10319000EE0FFF1FE35CFC4F80819181CF910C9477
:1031A0000204CD3E08F45CCF8C2F0E948B06CF9199
:1031B0000C9468058C2F0E9494080E947D081DCFF6
:1031C0002F923F924F925F926F927F928F929F9237
:1031D000AF92BF92CF92DF92EF92FF920F931F9325
:1031E000CF93DF93CDB7DEB764970FB6F894DEBF09
:1031F0000FBECDBF4B8B91E0961B990F990F981B7B
:103200009D5F9C8B86E0489FF0011124E050FF4FAA
:10321000DE01119601900D928A95E1F78B8981303C
:1032200009F0F6C0622F70E090E080E00E94152562
:1032300021E830E840E85BE30E94CB266F83788783
:103240006C01602F70E090E080E00E94152521E87D
:1032500030E840E85BE30E94CB2669877A87382E06
:10326000292E6E2D70E090E080E00E94152521E867
:1032700030E840E85BE30E94CB267B018C01298586
:103280003A85432D522D6F817885C6010E945026C4
:103290009701A80118160CF0E2C06F817885C6016D
:1032A0000E9450268F8098845601181614F047010A
:1032B000580129853A85432D522D6F817885C601A5
:1032C0000E9435249701A80187FFD7C06F817885B8
:1032D000C6010E94352487FDDFC0EB86FC860D8782
:1032E0001E872B853C854D855E85B401C5010E94F6
:1032F000C8236F87788B898B9A8B9401A5016B8586
:103300007C858D859E850E943524882309F40FC114
:103310009401A5016F817885C6010E943524811131
:10332000C2C09701A80169857A85832D922D0E94DC
:10333000C8232F85388949895A890E943A2420E078
:1033400030E040E752E40E94CB2620E030E044EB3E
:1033500053E40E94C92320E030E044EB53E40E9490
:103360005D252B013C0120E030E0A901B401C5013D
:103370000E943524C12CD12C7601882381F0940140
:10338000A5016F85788989899A890E943A2420E06D
:1033900030E048EC52E40E94CB266B017C0120E037
:1033A00030E044EB53E4C301B2010E943A2420E030
:1033B00030E04FE753E40E94CB260E94E624698365
:1033C00020E030E048EC52E4C701B6010E943A2404
:1033D00020E030E04FE753E40E94CB260E94E62431
:1033E0006A8320E030E048EC52E4B401C5010E9459
:1033F000CB2620E030E048EC52E40E943A2420E062
:1034000030E04FE753E40E94CB260E94E6246B8312
:10341000AE014F5F5F4F6B898C890E94D10A9B89F7
:10342000913021F062E08C890E94960464960FB678
:10343000F894DEBF0FBECDBFDF91CF911F910F91EA
:10344000FF90EF90DF90CF90BF90AF909F908F90C4
:103450007F906F905F904F903F902F900895698577
:103460007A85832D922D0E94502618160CF01FCFBE
:1034700089849A84A32CB22C1CCF69857A85832DEC
:10348000922D0E94352487FF28CF99859B878A85B6
:103490008C873D862E8625CF9F819B8788858C874C
:1034A000CD86DE861ECF9401A50169857A85832DA0
:1034B000922D0E943524811118C02F813885A601D4
:1034C000B701C8010E94C8232F85388949895A89C4
:1034D0000E943A2420E030E040E752E40E94CB26EC
:1034E00020E030E040EF52E434CF9401A501B70171
:1034F000C8010E943524811136CF29853A85432D94
:10350000522D6F817885C6010E94C8232F85388986
:1035100049895A890E943A2420E030E040E752E489
:103520000E94CB2620E030E040E753E412CF412C4C
:10353000512C320118CFEF920F93CF93C0E0E12CC2
:1035400000E020E043E060E08C2F0E94E018CF5FB5
:10355000C430A9F7C0E0E12C00E020E043E061E0E6
:103560008C2F0E94E018CF5FC430A9F7CF910F9144
:10357000EF90089580919E03882341F08091D303BA
:10358000811109C00E949B1A10929E0360E177E2AC
:1035900080E090E008951092D303F8CF0F931F932B
:1035A000182F60E070E0CB010E94541061E070E0E1
:1035B00080E090E004C0660F771F881F991F1A955E
:1035C000D2F70091B2031091B3032091B40330916C
:1035D000B503602B712B822B932B0E9454101F91EB
:1035E0000F910C949B1A6F927F928F929F92AF9241
:1035F000BF92CF92DF92EF92FF920F931F93CF93E0
:10360000DF93CDB7DEB72B970FB6F894DEBF0FBEB2
:10361000CDBF4F835887062F69877A878B876111C3
:103620001092A9038A859B85892B39F01F81988484
:10363000892D81238F3F09F0F8C02B960FB6F8949F
:10364000DEBF0FBECDBFDF91CF911F910F91FF90D5
:10365000EF90DF90CF90BF90AF909F908F907F9032
:103660006F9008950E94BA08B82E682F89819A81B8
:103670000E943909C92CD12CE12EF12CEB2DF0E060
:10368000EE0FFF1FEC0DFD1DEE0FFF1FEE0FFF1FD6
:10369000EE0DFF1DEE0FFF1FE651FE4FA590B490FB
:1036A00083E0682E611A81E0782E79180E94BB0AA7
:1036B000E82FF0E0E85CFC4F908180919E03711050
:1036C00023C021E0261500F10023E1F020919F03A3
:1036D0002223C1F0882341F084E00E94B50F90E0DE
:1036E00080E00E941910A9CF0E9444120E94BB0AD8
:1036F000813019F077247394780E872D90E00E9422
:10370000CE1A9BCF00939F03892C880C880C810EC6
:103710003BEBA3163DE5B30608F491C09501245C8C
:103720003D45882309F48DC02330310508F089C058
:10373000923008F486C0002309F47FCF0E94BB0AB0
:1037400089836A827B8282E00E94B50F83E090E0E9
:103750000E941910CE0101960E94F20F6ECF8C01CB
:103760000E5F1F4F020F131F000F111F06581E4F31
:10377000F12CE12CF801859194919927009721F083
:103780000E94E9090E948C09FFEFEF1AFF0A02501C
:10379000110923E0E216F10469F762E0882D0E9426
:1037A00096044BCF46E0429FC001439F900D1124E9
:1037B000E85CFC4F208120FD17C0FC01EE58FD4F56
:1037C0005F010023B1F085010A5F1F4FF501819170
:1037D00091915F01009721F00E94E9090E949917D9
:1037E0000A151B0599F76AC09C0124553E4F5901E3
:1037F000E8CF8501085F1F4FF801929182918F01F8
:10380000009721F00E94E9090E948C09A016B106D8
:1038100099F7C3CFC5010E94E909002319F00E945E
:1038200099174CC00E948C09B8CF19839A8289815C
:103830009A81011117CF0E941209B82E1BCF811156
:1038400077CF0E94BB0A782E9501265A3D4521323A
:10385000310500F7E82FF0E046EAA4164DE5B4067E
:1038600009F0A0CFE3E01E9FC0011124FCE09F9E61
:10387000800D911D112448E1749E900111240023B4
:1038800009F46DCF8C01020F131F000F111F065892
:103890001E4FB12CA12CF801859194919927009786
:1038A00021F00E94E9090E9499178FEFA81AB80A1F
:1038B0000E5F1F4FE3E0AE16B10469F7E72DF0E0AD
:1038C000EE0FFF1FEC0DFD1DEE0FFF1FEE0FFF1F94
:1038D000EE0DFF1DE652FE4F64918FEF860FF0E074
:1038E000E0E0873030F426E0629FF0011124E050E0
:1038F000FF4F86E0DE01119601900D928A95E1F767
:10390000AE014F5F5F4F882D0E94D10A96CEEF9295
:103910000F938091CC039091CD03892BE1F480919A
:10392000CE0381111BC00E94B50F84E090E00E947D
:10393000191061E070E080E090E00E9404101092A5
:10394000CF031092D0031092D1031092D2031092A1
:10395000CD031092CC030F91EF900895813059F46C
:103960000E94B50F84E591E00E94191090E080E07C
:103970000E946010E4CF823021F481E080939E03A6
:10398000DECF833011F40E94E115843009F040C08D
:103990008091C503E12C00E020E0882341F08130D4
:1039A00071F4E090CA030091C9032091C80341E07B
:1039B0006091C7038091C6030E94E018C0CF823097
:1039C00041F4E090CA030091C9032091C80345E087
:1039D000EFCF833041F4E090CA030091C9032091F6
:1039E000C80344E0E5CF843041F4E090CA0300917D
:1039F000C9032091C80342E0DBCF853009F09FCF97
:103A0000E090CA030091C9032091C80343E0D0CFDE
:103A1000853009F094CF8091C50390E00E94CE1AC2
:103A20008ECF1F920F920FB60F9211242F933F93B8
:103A30004F935F936F937F938F939F93AF93BF93B6
:103A4000CF93DF93EF93FF93D091E900DF708091E4
:103A5000EC00C82FC17080FDC0E81092E900809191
:103A6000F000877F8093F00078940E944F121092AC
:103A7000E9008091F00088608093F000CD2BCF703A
:103A8000C093E900FF91EF91DF91CF91BF91AF918A
:103A90009F918F917F916F915F914F913F912F9166
:103AA0000F900FBE0F901F9018951F920F920FB698
:103AB0000F9211242F933F934F935F936F937F93B4
:103AC0008F939F93AF93BF93EF93FF938091E10008
:103AD00082FF09C08091E20082FF05C08091E10071
:103AE0008B7F8093E1008091DA0080FF24C0809179
:103AF000D80080FF20C08091DA008E7F8093DA00AA
:103B00008091D90080FF9DC080E189BD82E189BD9F
:103B100009B400FEFDCF81E08093530480913D0401
:103B2000811109C00E9416020E9413038091E200D5
:103B300084608093E2008091E10080FF17C0809153
:103B4000E20080FF13C08091E2008E7F8093E2004C
:103B50008091E20080618093E2008091D8008062D1
:103B60008093D80019BC85E0809353048091E100D4
:103B700084FF2BC08091E20084FF27C080E189BDD3
:103B800082E189BD89B5982F917080FFFBCF80912C
:103B9000D8008F7D8093D8008091E1008F7E809344
:103BA000E1008091E2008F7E8093E2008091E2004C
:103BB00081608093E20080914A04882309F447C021
:103BC00084E080935304809153048091E10083FF4B
:103BD00027C08091E20083FF23C08091E100877FAE
:103BE0008093E10082E08093530410924A04809114
:103BF000E1008E7F8093E1008091E2008E7F8093D0
:103C0000E2008091E20080618093E20042E060E0A7
:103C100080E00E94E1028091F00088608093F000D3
:103C2000FF91EF91BF91AF919F918F917F916F9194
:103C30005F914F913F912F910F900FBE0F901F906A
:103C4000189519BC1092530410923D0474CF8091C2
:103C5000E30087FD93E090935304B5CF78941F92CF
:103C60001FB61F9211248F939F93AF93BF938091A0
:103C7000360490913704A0913804B091390401962C
:103C8000A11DB11D8093360490933704A09338048E
:103C9000B0933904BF91AF919F918F911F901FBE38
:103CA0001F9018951F921FB61F9211248F939F93F8
:103CB000AF93BF9380913504811113C08091360476
:103CC00090913704A0913804B09139044196A11D18
:103CD000B11D8093360490933704A0933804B093B9
:103CE0003904BF91AF919F918F911F901FBE1F907C
:103CF0001895CDB7DEB762970FB6F894DEBF0FBE4A
:103D0000CDBF84B7877F84BF0FB6F894A895809104
:103D10006000886180936000109260000FBE80E8B0
:103D200090E00FB6F89480936100909361000FBE0D
:103D300085B7806885BF85B7806885BF85EE96E0CA
:103D400090939503809394030E9416020E9413039C
:103D50008091E20084608093E20078948091530423
:103D60008823A1F01091E9001F709091EC00892F39
:103D7000817090FD80E8182B1092E9008091E80096
:103D800083FD0E944F121F701093E90082E084BDF2
:103D900093E095BD9AEF97BD80936E0081E90E94F4
:103DA000E70682E90E94E70687EF0E94E70686EFB2
:103DB0000E94E70685EF0E94E70684EF0E94E7066F
:103DC0001092C1031092C0031092BD031092BC0365
:103DD00090E080E00E948E23893E9E4F11F00E9469
:103DE000B01682E090E00E94862380932E040E9409
:103DF000EE159093B7038093B6030E94FC158FE3F2
:103E00009CE90197F1F700C000000E94FC15809129
:103E1000C00380FF08C06FEF7FEF90E080E00E945A
:103E2000B2230E94D60383E090E00E948623682F8D
:103E300070E090E080E00E9482096091B20370918E
:103E4000B3038091B4039091B5030E9421108CE0DC
:103E500090E00E94862390E0B0E0A0E08093B80359
:103E60009093B903A093BA03B093BB0382E090E0B0
:103E700090935C0180935B0180915304843079F5C9
:103E800080915D0190915E01A0915F01B091600110
:103E9000892B8A2B8B2B19F1809154018F70809381
:103EA000E90088E0E4E6F1E0DE01119601900D9270
:103EB0008A95E1F750E040E068E070E0CE010196BD
:103EC0000E94980250E040E062E070E08BE591E0F3
:103ED0000E9498028091E8008E778093E800EAE0E3
:103EE000F2E0E491E093BF03E4EDF3E030E020E0A2
:103EF000808181113DC04091BE0381E0840F6CE15F
:103F000074E0882371F1E4EDF3E09081981749F1B2
:103F100039966E177F07C9F78093BE0399E0929F89
:103F2000F001939FF00D1124EC52FC4F80832FB7CA
:103F3000F8948091360490913704A0913804B091A0
:103F400039042FBF805F984DAF4FBF4F818392835D
:103F5000A383B4838AEB9AE19683858310861782C4
:103F60000EC091E0980F481709F493C0892FC9CF6C
:103F70002F5F3F4F39962830310509F0B9CF0E94A5
:103F80009B1A86E391E09093320480933104E2E03F
:103F9000CE2ED12CE12CF12C812C912C5401839428
:103FA0008091530470E4772E10E102E1853009F42A
:103FB000BBC00E94FC15882359F08FB7F89440913C
:103FC00036045091370460913804709139048FBFE2
:103FD0009091C0038091C303891769F0282F292786
:103FE00080E077247394372D322309F0A7C08F5FC8
:103FF000770C8430C1F79091C1038091C403891775
:1040000009F4A5C0282F292780E077247394322F44
:10401000372109F497C021E001E010E089872A8761
:10402000972181E009F480E08B870E94F60381608C
:10403000782F9D878C8749855A856B858D850E9451
:10404000F31AF801ED53FC4F80817826708204E565
:1040500014E0712C65E9462E64E0562EF801818546
:10406000882309F485C0813009F4D2C1E081E15090
:10407000E73038F4F0E0EE0FFF1FEF58FC4F4080C0
:1040800051800E94F603AC01B801872DF201099519
:1040900075C09093BE0373CF80915304843019F19F
:1040A00010923504A8E1B0E00FB6F894A895A0935B
:1040B00060000FBE7092600083B7817F846083BF11
:1040C00083B7816083BF7894889583B78E7F83BFE1
:1040D0000FB6F894A8958091600088618093600085
:1040E000109260000FBE809149048823E9F00E947D
:1040F000FC158091C0039091C103892BA9F019BDD3
:1041000009BD09B400FEFDCF8091D8008F7D80935A
:10411000D8008091E00082608093E0008091E00010
:1041200081FDFCCF0E94441280915304853009F434
:10413000B3CF0E9444120E942E043BCF20E010E037
:1041400000E06CCF8F5F770C843009F060CF8FEF89
:104150008E878F87188A0E94F6038160782F9A8B4A
:10416000898B4E855F8568898A890E94F31A6FCF93
:1041700020E040E060E0872D0E948E0C7394015F88
:104180001F4FF8E07F126ACF86E0E7E2F4E0DE013D
:10419000119601900D928A95E1F760902904709034
:1041A0002A0410912B0400912C04109229041092DF
:1041B0002A0410922B0410922C04862D872991F04A
:1041C00080912504909126040E94E703AC01909110
:1041D0002104992309F420C1809143018417150615
:1041E00008F428C1812F802B09F448C08091230452
:1041F000909124040E94E7039C019091200499234C
:1042000009F41BC225363105C8F19F3F19F09F5FA5
:1042100090932004112359F00E9408069FEF111675
:104220000CF491E0899F802D112480932B040023AE
:1042300059F00E9408069FEF10160CF491E0899F38
:10424000802D112480932C0430912B043323B1F062
:1042500020912C04222391F045EB3403C00111245A
:10426000992309F426C190932B0455EB2503900163
:104270001124332309F421C130932C0480912904A3
:1042800090912A04892B90912B04892B90912C04D6
:10429000892B11F00E94680586E0FE013196A7E2A5
:1042A000B4E001900D928A95E1F70E942E0490915E
:1042B000C203891721F00E942E048093C2038091CB
:1042C0005304843009F580915D0190915E01A091C5
:1042D0005F01B0916001892B8A2B8B2BA9F0809113
:1042E0004F018F708093E9008091E80082FF0CC03D
:1042F0009091F3008091F200892B09F0E2C0809147
:10430000E8008B778093E800809153048430C9F4EF
:1043100080915D0190915E01A0915F01B09160017B
:10432000892B8A2B8B2B69F080914A018F708093A7
:10433000E9008091E80080FF04C089E491E00E94D8
:1043400066028FB7F894409036045090370460901E
:104350003804709039048FBF80911C0490911D0423
:10436000A0911E04B0911F04A3019201281B390BD8
:104370004A0B5B0BDA01C901181619061A061B064F
:104380000CF00ECE40921C0450921D0460921E044C
:1043900070921F048CE1282E84E0382E04ED13E087
:1043A000D8018C91882371F111966D917D918D9139
:1043B0009C9114979B01AC012419350946095709B2
:1043C0001216130614061506ECF017964D915C9123
:1043D00018971596ED91FC91099561157105810568
:1043E000910509F41EC1F801218132814381548174
:1043F000DC01CB01820F931FA41FB51F8183928321
:10440000A383B483075F1F4F2016310649F6C8CD3A
:10441000248543856285AFCE209142018AE0289FA2
:10442000900111242417350708F0DCCE9F5F90938C
:10443000210402C09F3FD1F7662059F00E94410637
:104440009FEF16140CF491E0899F802D1124809326
:104450002904772059F00E9441069FEF17140CF4AD
:1044600091E0899F802D112480932A0430912904A2
:10447000332309F4B7CE20912A04222309F4B2CEC3
:1044800045EB3403C0011124992359F0909329047A
:1044900055EB250390011124332339F030932A047E
:1044A000A1CE81E080932904F3CF81E080932A0498
:1044B00099CE81E080932B04D8CE81E080932C04A8
:1044C000DDCE8091F3000091F200182F77247394D1
:1044D0000115110509F418CF809153048430F1F0CF
:1044E0008FEF9FEF4091CF035091D0036091D103A4
:1044F0007091D2034115510561057105E9F580936D
:10450000CE038092CF039092D003A092D103B092B9
:10451000D2037092D30301501109DACF80915D016B
:1045200090915E01A0915F01B0916001892B8A2B6F
:104530008B2BB1F280914F018F708093E9008091B5
:10454000E80082FFCDCF9091F3008091F200892B9B
:1045500081F08091F10090E03091F3002091F20021
:10456000232B09F0BFCF2091E8002B772093E800A0
:10457000B9CF8FEF9FEFF0CF413051056105710545
:1045800071F499279093CD038093CC03C092CF030D
:10459000D092D003E092D103F092D203BACF20910F
:1045A000CC033091CD034230510561057105B9F45A
:1045B000982F8827282B392B3093CD032093CC03B9
:1045C00083E090E0A0E0B0E08093CF039093D0032D
:1045D000A093D103B093D2030E94871C9ACFF0918D
:1045E000CE03F43058F0EDEFE40FF43029F4F0E0AE
:1045F000EB53FC4F808302C0F530C9F34F5F5F4F30
:104600006F4F7F4F4093CF035093D0036093D103FC
:104610007093D203215031093093CD032093CC0302
:10462000DBCFD8011C92F80111821282138214820E
:104630001682158210861782E5CE2D32314008F0A1
:10464000E6CD1CCE991B79E004C0991F961708F09F
:10465000961B881F7A95C9F780950895AA1BBB1BE6
:1046600051E107C0AA1FBB1FA617B70710F0A61B72
:10467000B70B881F991F5A95A9F780959095BC0193
:10468000CD01089597FB072E16F4009407D077FD0F
:1046900009D00E942E2307FC05D03EF49095819509
:1046A0009F4F0895709561957F4F0895EE0FFF1FFE
:1046B0000590F491E02D099497FD1094002E083098
:1046C00098F00850232F342F452F562F672F782F1F
:1046D000892F912DF4CF15949795879577956795A8
:1046E00057954795379527950A95AAF71124002DD8
:1046F0000895FB01DC0104C08D910190801921F423
:1047000041505040C8F7881B990B0895F999FECF86
:1047100092BD81BDF89A992780B50895A8E1B0E0CF
:1047200042E050E00C94BA23262FF999FECF92BDB7
:1047300081BDF89A019700B4021639F01FBA20BD66
:104740000FB6F894FA9AF99A0FBE08950396272F98
:104750000E9495230E949423252F0E949523242FA5
:104760000C9495230196272F0E9495230C94942353
:10477000DC01CB01FC01F999FECF06C0F2BDE1BD21
:10478000F89A319600B40D9241505040B8F7089510
:104790005058BB27AA270E94E0230C9416260E949B
:1047A000082638F00E940F2620F039F49F3F19F4B4
:1047B00026F40C94DE250EF4E095E7FB0C94CA2554
:1047C000E92F0E94272658F3BA1762077307840758
:1047D000950720F079F4A6F50C9449260EF4E0959F
:1047E0000B2EBA2FA02D0B01B90190010C01CA01AB
:1047F000A0011124FF27591B99F0593F50F4503E56
:1048000068F11A16F040A22F232F342F4427585F47
:10481000F3CF469537952795A795F0405395C9F75F
:104820007EF41F16BA0B620B730B840BBAF0915017
:10483000A1F0FF0FBB1F661F771F881FC2F70EC0B6
:10484000BA0F621F731F841F48F487957795679589
:10485000B795F7959E3F08F0B0CF9395880F08F075
:104860009927EE0F9795879508950E94A62508F43D
:1048700081E008950E944E240C9416260E940F2673
:1048800058F00E94082640F029F45F3F29F00C946C
:10489000CA2551110C944A260C94DE250E94272625
:1048A00068F39923B1F3552391F3951B550BBB275F
:1048B000AA2762177307840738F09F5F5F4F220FA4
:1048C000331F441FAA1FA9F335D00E2E3AF0E0E89B
:1048D00032D091505040E695001CCAF72BD0FE2FE5
:1048E00029D0660F771F881FBB1F26173707480779
:1048F000AB07B0E809F0BB0B802DBF01FF27935831
:104900005F4F3AF09E3F510578F00C94CA250C9405
:104910004A265F3FE4F3983ED4F3869577956795F2
:10492000B795F7959F5FC9F7880F911D9695879565
:1049300097F90895E1E0660F771F881FBB1F621784
:1049400073078407BA0720F0621B730B840BBA0B42
:10495000EE1F88F7E095089529F416F00C94CA2507
:104960000C9449260C94DE250E942F26A8F3963835
:10497000A0F707F80F92E8942BE33AEA48EB5FE7D9
:104980000E94E1260F920F920F924DB75EB70F92E1
:104990000E949726ECEAF0E00E94E1254F915F919A
:1049A000EF91FF91E595EE1FFF1F49F0FE57E0687C
:1049B0004427EE0F441FFA95E1F74195550B0E94ED
:1049C00061260F9007FE0C94552608950E942F260D
:1049D00088F09F5798F0B92F9927B751B0F0E1F0C0
:1049E000660F771F881F991F1AF0BA95C9F714C070
:1049F000B13091F00E944926B1E008950C94492607
:104A0000672F782F8827B85F39F0B93FCCF38695A8
:104A100077956795B395D9F73EF490958095709505
:104A200061957F4F8F4F9F4F0895E89409C097FB82
:104A30003EF490958095709561957F4F8F4F9F4F75
:104A40009923A9F0F92F96E9BB279395F6958795B9
:104A500077956795B795F111F8CFFAF4BB0F11F47C
:104A600060FF1BC06F5F7F4F8F4F9F4F16C0882323
:104A700011F096E911C0772321F09EE8872F762F59
:104A800005C0662371F096E8862F70E060E02AF09A
:104A90009A95660F771F881FDAF7880F9695879586
:104AA00097F908950E94082620F019F00E940F2619
:104AB00050F40C94DE250C944A26E92F0E942726F8
:104AC00088F35523B1F3E7FB621773078407950753
:104AD000A8F189F3E92FFF2788232AF03197660F81
:104AE000771F881FDAF7952F5527442332F091500E
:104AF0005040220F331F441FD2F7BB27E91BF50B91
:104B0000621B730B840BB109B1F222F4620F731FA5
:104B1000841FB11D31972AF0660F771F881FBB1FB6
:104B2000EFCF9150504062F041F0882332F0660F91
:104B3000771F881F91505040C1F793950C94D02552
:104B40008695779567959F5FD9F7F7CF990F0008FE
:104B5000550FAA0BE0E8FEEF16161706E807F9074F
:104B6000C0F012161306E407F50798F0621B730BEA
:104B7000840B950B39F40A2661F0232B242B252B6B
:104B800021F408950A2609F4A140A6958FEF811D0E
:104B9000811D089597F99F6780E870E060E00895AF
:104BA0009F3F31F0915020F4879577956795B795A1
:104BB000880F911D9695879597F908959FEF80EC42
:104BC0000895DF93CF931F930F93FF92EF92DF929D
:104BD0007B018C01689406C0DA2EEF010E94DE266C
:104BE000FE01E894A5912591359145915591A6F343
:104BF000EF010E94E023FE019701A801DA9469F712
:104C0000DF90EF90FF900F911F91CF91DF9108956A
:104C100000240A941616170618060906089500249B
:104C20000A9412161306140605060895092E039415
:104C3000000C11F4882352F0BB0F40F4BF2B11F489
:104C400060FF04C06F5F7F4F8F4F9F4F089557FDE8
:104C50009058440F551F59F05F3F71F04795880FEA
:104C600097FB991F61F09F3F79F087950895121681
:104C700013061406551FF2CF4695F1DF08C016162D
:104C800017061806991FF1CF8695710561050894DE
:104C90000895E894BB2766277727CB0197F90895F5
:104CA0000E94A62508F48FEF08959B01AC0160E0F7
:104CB00070E080E89FE30C943A240C94CA250C948D
:104CC000D0250E942F26D8F39923C9F3940F511DA4
:104CD000A3F39150504094F059F0882332F0660FBE
:104CE000771F881F91505040C1F79E3F51052CF708
:104CF000880F911D9695879597F908955F3FACF0C1
:104D0000983E9CF0BB27869577956795B79508F4F4
:104D1000B1609395C1F7BB0F58F711F460FFE8CF6E
:104D20006F5F7F4F8F4F9F4FE3CF0C944A26FA015E
:104D3000DC01AA0FBB1F9B01AC01BF5728F422273F
:104D400033274427507820C0B75190F4AB2F00246C
:104D5000469537952795011CA395D2F3002071F055
:104D6000220F331F441FB395DAF30ED00C94C823DF
:104D700061307105A0E88A07B94630F49B01AC01A7
:104D80006627772788279078309621F02083318313
:104D90004283538308950E94DE260C9416260E94B7
:104DA000082638F00E940F2620F0952311F00C946D
:104DB000CA250C94DE2511240C944A260E9427262D
:104DC00070F3959FC1F3950F50E0551F629FF0015E
:104DD000729FBB27F00DB11D639FAA27F00DB11D77
:104DE000AA1F649F6627B00DA11D661F829F222700
:104DF000B00DA11D621F739FB00DA11D621F839F87
:104E0000A00D611D221F749F3327A00D611D231F5C
:104E1000849F600D211D822F762F6A2F11249F57AA
:104E200050409AF0F1F088234AF0EE0FFF1FBB1FAD
:104E3000661F771F881F91505040A9F79E3F51056C
:104E400080F00C94CA250C944A265F3FE4F3983E08
:104E5000D4F3869577956795B795F795E7959F5F16
:104E6000C1F7FE2B880F911D9695879597F90895A8
:104E70009F930E9442270F9007FCEE5F0C946B27D4
:104E80000C94DE250E942F26D8F3E894E0E0BB279F
:104E90009F57F0F02AED3FE049EC06C0EE0FBB0F44
:104EA000661F771F881F28F0B23A620773078407CE
:104EB00028F0B25A620B730B840BE3959A9572F744
:104EC000803830F49A95BB0F661F771F881FD2F782
:104ED00090480C94D225EF93E0FF07C0A2EA2AED98
:104EE0003FE049EC5FEB0E94E0230E9416260F9002
:104EF000039401FC9058E4EDF0E00C947F279F931D
:104F00008F937F936F93FF93EF939B01AC010E946C
:104F1000CB26EF91FF910E94E1252F913F914F9178
:104F20005F910C94CB26F894FFCF7F0AB80A820ACF
:104F3000850ABA0A790A880A880A8B0ABA0A910A83
:104F40009A0AAC0ABA0A6D0A7C0A700A760ABA0A88
:104F5000BA0ABA0A730ABA0ABA0ABA0ABA0ABA0A78
:104F6000BA0ABA0ABA0ABA0ABA0ABA0ABA0ABA0A21
:104F7000BA0ABA0ABA0ABA0ABA0ABA0ABA0ABA0A11
:104F8000BA0A8E0A880BAF0BCE0BEE0B0E0C2E0C52
:104F90004E0C6E0CAE0CD40CE90CFE0C130D280D4F
:104FA0003D0D520DE2130A14B2150A14B2153D1448
:084FB0005E14B2155B156815D3
:104FB80000000000000000000000000000FFFF3CAF
:104FC80000040000FF3200322BFFFF7800032BFFA4
:104FD800FF20030A00FFFF0A000AEA80FF88130A7D
:104FE800000000000000D3034F0B2E0B2A0B260BEA
:104FF800D2031E32140A2808010284100000010599
:1050080010000001830800000100000000000000FB
:1050180000000000A12000000000020000000000C5
:105028000000000000000000000000000005000073
:105038000000000000040000000000000003000061
:105048000000000000000000000000000002000056
:105058000000000000010000000000000000000047
:105068000000E300E1000400E300E1001900E300B0
:10507800E1001600E2001C000000E3001A00000036
:10508800E100E3001000E100E3001200E100E300AA
:105098000800E100E3000E00E100E3000B00E1007E
:1050A800E3001000E100E3000E0000000000000033
:1050B800000000000000E100E3000B00E30007002F
:1050C8000000E30008000000000000000000E0000D
:1050D800E3000B00E3001A000000A9000000000034
:1050E800AA0000000000AB0000000000AE000000B5
:1050F8000000E30006000000E30019000000E300E0
:1051080016000000E3001D000000F1000000000090
:10511800E300E1000B00E300E1001500E300E0001C
:105128000600000000000000E20004000000E200A9
:1051380019000000E20016000000E2001C00000058
:10514800E20014000000E000E1001000E000E100CF
:105158001200E000E1000800E000E1000E00E000BD
:10516800E1000B00E00010000000E000E1000E008C
:10517800000000000000000000000000E000E10066
:105188000B00E00007000000E0000800000000003D
:1051980000000000E000E2000B00E0001A00000040
:1051A800A90000000000AA0000000000AB000000F9
:1051B8000000AE0000000000E00006000000E00073
:1051C80019000000E00016000000E0001D000000CB
:1051D800F10000000000E0000B000000E0001500F6
:1051E8000000E000E20006000203818283E200E999
:1051F80000EA00B500B600B700CD008301CC008AF4
:105208000192019401210223022402250226022789
:10521800022A02B300B4006F0070009192F7F6F50D
:10522800F4000ECE0ECB0D060E890D670DAF118062
:10523800047604610450043A044504040407040491
:045248000405050054
:00000001FF
