:100000000C940E020C9455020C9455020C9455025B
:100010000C9455020C9455020C9455020C94550204
:100020000C9455020C9455020C94E11C0C949D1CEC
:100030000C94DE1D0C9455020C9455020C94550240
:100040000C9455020C9455020C9455020C945502D4
:100050000C9455020C94BA1D0C9455020C94550244
:100060000C9455020C9455020C9455020C945502B4
:100070000C9455020C9455020C9455020C945502A4
:100080000C9455020C9455020C9455020C94550294
:100090000C9455020C9455020C9455020C94550284
:1000A0000C9455020C9455020C9455020763423689
:1000B000B79BD8A71A39685618AEBAAB558C1D3CF9
:1000C000B7CC5763BD6DEDFD753EF6177231BF00BD
:1000D0000000803F05A84CCDB2D44EB93836A902F5
:1000E0000C50B9918688083CA6AAAA2ABE00000036
:1000F000803F0000C1000101018201010184000074
:1001000000000000000000000000000000000000EF
:1001100000000000000000000000000000FF0000E0
:100120000000000000000000FFFF000000FF0000D2
:1001300000000000000000000000000000000000BF
:1001400000000000000000000000000000FF0000B0
:100150000000000000000000FFFF000000FFFFFFA4
:10016000FFFFFFFFFFFF000000FFFFFFFFFFFFFF9C
:10017000FFFFFFFFFFFF0000FF000000FF00FFFF89
:10018000FFFFFFFFFFFF0000FF000000FF00FFFF79
:10019000FFFFFFFFFFFF000000FFFFFFFFFFFFFF6C
:1001A000FFFFFFFFFFFF0000FF000000FF00FFFF59
:1001B000FFFFFFFFFFFF0000FF000000FF00E10066
:1001C000040000000000000000000000000000002B
:1001D000000000000000000000000000000000001F
:1001E000000000000000000000000000000000000F
:1001F00000000000000000000000000000000000FF
:10020000000000000000E100040000000000000009
:1002100000000000000000000000000000000000DE
:1002200000000000000000000000000000000000CE
:1002300000000000000000000000000000000000BE
:1002400000000000000000000000000000000101AC
:100250000201030303030303050301010201030376
:1002600003030303050300000000AB5D0000BD5D58
:10027000BB5DAA5DA85DBE5DBC5DA95DA75D00001C
:100280000000AB5D0000BD5DBB5DAA5DA85DBE5D0D
:10029000BC5DA95DA75D0005010902A101850209F8
:1002A00001A1000509190129081500250195087506
:1002B0000181020501093009311581257F950275FB
:1002C00008810609381581257F9501750881060585
:1002D0000C0A38021581257F950175088106C0C07A
:1002E00005010980A101850319012AB7001501261E
:1002F000B700950175108100C0050C0901A10185A9
:100300000419012AA002150126A002950175108189
:1003100000C005010906A101050719E029E715003C
:100320002501950875018102950175088101050770
:10033000190029FF150026FF0095067508810005A4
:10034000081901290595057501910295017503911B
:1003500001C009027800040100A0FA0904000001AC
:10036000030101000921110100012240000705815C
:100370000308000A0904010001030000000921111B
:10038000010001227B000705820320000A080B02FE
:100390000202020100090402000102020100052418
:1003A000001001042402020524060203070583034A
:1003B0000800FF09040300020A0000000705050207
:1003C0001000050705840210000512010002EF026B
:1003D0000108303502000100010200012003430042
:1003E00068006F006E006B00650072006B006500B6
:1003F0007900730020004D006100780000001803B0
:10040000430068006F006E006B00650072006B00B7
:1004100065007900730000000403090411241FBE65
:10042000CFEFDAE0DEBFCDBF04B603FE27C0809178
:100430002A0590912B05A0912C05B0912D058730B0
:10044000904BA740B04BD1F410922A0510922B0587
:1004500010922C0510922D0514BE84B7877F84BF9F
:100460000FB6F894A8958091600088618093600031
:10047000109260000FBEE0E0F8E3099513E0A0E001
:10048000B1E0EAECFEE402C005900D92A23BB10798
:10049000D9F725E0A2EBB3E001C01D92AA32B20762
:1004A000E1F70E94051E0C9414270C940000E8ED5F
:1004B000F0E080818E7F80831092E2001092DA005B
:1004C0001092E100A0EEB0E08C9181608C9380816D
:1004D0008F77808319BCA7EDB0E08C918E7F8C93D1
:1004E00080818F7E808310925F0408952091E400C4
:1004F0003091E50095E6A9012091EC00822F8170F2
:1005000020FF06C08091E80080FF06C080E00895CB
:100510002091E80022FD1AC080917504882389F09B
:10052000853089F08091EB0085FD0FC02091E400BB
:100530003091E50042175307F9F29150E1F684E05B
:10054000089582E0089583E0089581E00895809100
:100550007504843061F58091570190915801A09104
:100560005901B0915A01892B8A2B8B2B01F1809173
:1005700044018F708093E9009091F3008091F20024
:10058000892B11F480E008959091E8008091E800B3
:100590008E778093E80095FDF5CF0E947602811159
:1005A00007C09091E8009E779093E800089582E05C
:1005B0000895EF92FF920F931F93CF937C018B01CD
:1005C0000E947602C82F811117C08091E80085FD36
:1005D0000BC08091E8008E778093E8000E9476023D
:1005E000882399F3C82F08C0F70181917F01809378
:1005F000F1000150110949F78C2FCF911F910F91F4
:10060000FF90EF90089580916D0487FF13C0809153
:10061000E80082FF06C08091E8008B778093E800B5
:1006200004C0809175048111F2CF08958091750402
:100630008823D9F38091E80080FFF8CF8091E8000B
:100640008E77ECCF982F9093E900242F762F50E0EF
:10065000891731F07091EC002091ED005091F0007D
:1006600021FD07C09F5F973071F78093E90081E01B
:1006700008953091EB003E7F3093EB003091ED0018
:100680003D7F3093ED003091EB0031603093EB0013
:100690007093EC002093ED005093F0002091EE0059
:1006A00027FDE0CF80E00895CF92DF92EF92FF9296
:1006B0000F931F93CF93DF93C8EDD0E088818F7E97
:1006C0008883E7EDF0E080818160808384E082BFF1
:1006D00081E080935F0488818E7F888302EE10E042
:1006E000F80110821092DA0081EEC82ED12CF601AA
:1006F000108288818F778883888180688883888149
:100700008F7D888319BC1092750410926C0410922E
:100710006B0410926A0490EEE92EF12CF7018081AF
:100720008B7F808388818160888342E060E080E005
:100730000E942203F60180818E7F8083F8018081F0
:1007400081608083808188608083F70180818E7FD3
:100750008083888180618883DF91CF911F910F9181
:10076000FF90EF90DF90CF900895FC01809173048B
:100770009091740486179707A0F06115710529F40C
:100780009091E8009E779093E80090E061157105E4
:1007900051F4911108C08091E80082FF34C080E0DC
:1007A0000895BC01F2CF809175048823C1F1853092
:1007B000C1F18091E80083FD30C08091E80082FDA6
:1007C000EACF8091E80080FFE1CF8091F300209193
:1007D000F200382F6115710519F02830310558F0F5
:1007E00091E02830310509F090E02091E8002E7763
:1007F0002093E800CBCF81918093F1006150710983
:100800002F5F3F4FE7CF80917504882341F08530FB
:1008100041F08091E80083FFBECF81E0089582E03F
:10082000089583E00895089580916104089587E70D
:1008300097E7909301088093000888E19AE00FB64B
:10084000F894A895809360000FBE90936000FFCF4E
:100850009C014FB7F8948091580490915904A0914D
:100860005A04B0915B044FBF821B930B08952FB7BE
:10087000F8948091580490915904A0915A04B09131
:100880005B042FBF0895209155043091560428171A
:10089000390771F09093560480935504E091530406
:1008A000F0915404309721F00084F185E02D0994F3
:1008B000089520915104309152042817390771F09E
:1008C0009093520480935104E0915304F0915404A6
:1008D000309721F00680F781E02D09940895E0918A
:1008E0005304F0915404309721F00190F081E02DF1
:1008F000099480E00895FA01623039F41686848103
:100900009581820F931F908787830895FA01623043
:1009100039F4168684819581820F931F908787838F
:100920000895FA016250770B6230710548F48481B2
:10093000958196958795820F931F90878783089559
:1009400016860895FA01623019F0633059F008955F
:1009500084819581280F391F30872783168681E08F
:100960008587089528513C4F30872783089562304A
:1009700039F4FA0184819581820F931F90878783D0
:100980000895FA01623019F0633051F008958481BE
:100990009581280F391F3087278381E08587089547
:1009A00028513C4F30872783089508950895CF92AA
:1009B000DF92EF92FF920F931F93CF93DF93F82E66
:1009C000E62E8BE08F1540F10F2D10E0EFE0FE9E3C
:1009D000E0011124CA58DB4FE881E25085EDC82EB2
:1009E00084E0D82EE63038F4F0E0EE0FFF1FE65634
:1009F000FC4FC080D1800E9437049C01AE016E2D57
:100A00008F2DF60109958FE0809FF001819FF00DF9
:100A10001124EA58FB4FE186DF91CF911F910F918E
:100A2000FF90EF90DF90CF900895AF92BF92CF925A
:100A3000DF92EF92FF920F931F93CF93DF93F82EE5
:100A4000E62EE901473908F046E9842F242FEE20ED
:100A500009F462C02E2D30E0042F10E056E0F59E20
:100A6000C0011124EFEFF0E0BF010E94AF228F2DF3
:100A700090E0880F991F55E5569FD001579FB00D04
:100A800011248A1B9B0B982F990F980FDF01A21B33
:100A9000B30BA09F6001A19FD00CB09FD00C11247C
:100AA0008D2DE99ED0011124AB2FBB277F01EA1ABF
:100AB000FB0AE09ED001E19EB00DF09EB00D112426
:100AC0005F01A91AB108A29E7001A39EF00CB29E0C
:100AD000F00C1124EF2CFF24EE19FF09E09F900188
:100AE000E19F300DF09F300D1124932F623071057E
:100AF00009F148F46115710569F061307105F1F093
:100B00009D2D8B2F07C064307105D9F0F0F0663051
:100B10007105B1F7242F492F298348838A83DF91F8
:100B2000CF911F910F91FF90EF90DF90CF90BF90EA
:100B3000AF900895942F4D2D832FECCF942F4B2FF2
:100B4000E9CF9D2D842F432FE5CF842F4D2D9B2F53
:100B5000E1CF0E9437049C0190914D0480914E0496
:100B6000982B21F030934A042093490490914F042C
:100B700080915004982B21F030934804209347042F
:100B8000E0915304F0915404309749F082E080934F
:100B90004B040480F581E02D8BE494E009940895E2
:100BA00040914D048D3E59F480914E0487FF0DC055
:100BB00010924E0441110BC01092450408C08E3EA5
:100BC00081F480914E0418169CF3442381F08091A7
:100BD0004F0490915004892B09F05AC0109244049C
:100BE00008958F3E49F447FFF0CF10924D04809155
:100BF0004E048111ECCFE0CF803F19F41416ACF312
:100C0000E4CF90914F04893F29F41916F4F610921D
:100C10004F04DBCF8A3F19F497FFD7CFF8CF9091DD
:100C200050048B3F29F497FFD0CF10925004CDCFC2
:100C30008C3F19F41916CCF3C8CF9FE0980F983069
:100C400090F4815F990B21E030E0B90102C0660F9A
:100C5000771F8A95E2F7CB01809590914C04892308
:100C600080934C04B2CF8D3F31F4809146048E7F47
:100C700080934604AACF8E3F21F4809146048D7F55
:100C8000F7CF8F3F09F0A1CF809146048B7FF0CF43
:100C900008958091460480FD16C081FD16C082FD36
:100CA00016C0809144048823A1F0883280F428E0A3
:100CB000829FC001112468E270E00E94C322862F47
:100CC000672B39F0089582E0089584E0089588E064
:100CD000089581E008958091460480FD14C081FD4F
:100CE00014C082FD16C080914504882381F08431B0
:100CF00080F422E3829FC001112464E170E00E942D
:100D0000C322862F08958CE0089589E1089585E037
:100D1000089582E308958D3E31F40E946B0681951B
:100D200080934E0408958E3E19F40E946B06F8CF0E
:100D30008F3E31F40E946B06819580934D04089597
:100D4000803F19F40E946B06F8CF893F29F40E9476
:100D5000490680934F0408958A3F21F40E94490672
:100D60008195F7CF8B3F31F40E944906819580939E
:100D7000500408958C3F19F40E944906F8CF9FE073
:100D8000980F983070F4815F990B21E030E001C03A
:100D9000220F8A95EAF780914C04822B80934C04B1
:100DA00008958D3F31F4809146048160809346041C
:100DB00008958E3F21F4809146048260F7CF8F3FE3
:100DC000B9F7809146048460F1CF80E00895F894EB
:100DD000E82FE295EF70F0E031A1282F2F7081E02D
:100DE00090E001C0880F2A95EAF7982F90959323F9
:100DF00091A392A1892B82A37894089582389105BA
:100E000091F1C0F58133910509F490C028F589323C
:100E1000910509F484C08A32910509F48EC08115C8
:100E200020E5920708F0A6C0811540E4940708F079
:100E30002CC18F3B910508F087C0883A910508F0D6
:100E400017C1853A910508F00AC18430910500F573
:100E500081309105E9F03CC08533910509F458C013
:100E600089339105E1F62091D603237089F080EE55
:100E700090E00895833E910571F158F4803E91050C
:100E8000E9F0823E910559F62091D60322FD1EC05D
:100E90000895863E910551F1873E910571F1843E9A
:100EA000910509F0BCCF2091D70321FFF1CF8091AC
:100EB000D60384FD0DC087EE90E008952091D603FF
:100EC00020FD0FC13091D70330FFE2CF24FF0CC1CA
:100ED00090E080E0DDCF2091D60322FD08C1309163
:100EE000D70330FDC4CF24FFD3CFF2CF2091D60358
:100EF00023FFCECF24FDECCFDECF2091D60323FD00
:100F0000F9C03091D70331FFEECF84EE90E0089521
:100F10002091D60325FFBCCF89E290E0089520916F
:100F2000D60325FFB5CF85E390E008952091D60341
:100F300026FFAECF8AE290E008952091D60326FFE7
:100F4000A7CF81E390E008958F3F910509F060F409
:100F50008D3E910508F097C09C01215E3109273034
:100F6000310508F495CFB4CF811520E2920708F43B
:100F70008FCFAECF811543E5940740F5811522E56B
:100F8000920708F08AC0811541E5940708F080C0F7
:100F90009C0164E0369527956A95E1F7922F93704E
:100FA000282F26952695237040E2249F9001112436
:100FB000392B482F437081E090E002C0880F991FC1
:100FC0004A95E2F7822B932B9C680895811529E5B9
:100FD0009207F0F4811548E5940708F06FC0811579
:100FE00024E5920708F074CFAC014370552721E047
:100FF00030E002C0220F331F4A95E2F786958695AE
:1010000040E2849FC0011124822B932B9A6808959B
:1010100081154AE5940708F05BCF282F2F70409187
:10102000D60342FF05C083FF4EC0282F27702460DF
:101030003091D70330FF07C0322F3871383009F0B4
:1010400048C0277F216044FD277E34E09695879530
:101050003A95E1F78F70982F822F90690895855AFD
:10106000E82FF0E0EC5AFC4F808190E09064089506
:10107000885AE82FF0E0EE0FFF1FE95AFC4F8081FD
:10108000918194640895906508959F70906A089581
:10109000982F8827816F906A0895AC014370552777
:1010A00021E030E002C0220F331F4A95E2F7869517
:1010B000869540E2849FC001112484CF982F882711
:1010C000806F906A089582FFB3CF282F2B7028601D
:1010D000AFCF322F3171313009F0B5CF2E7F28607C
:1010E000B2CF89E390E0089583EE90E0089582EE18
:1010F00090E0089586EE90E008958091CA03909163
:10110000C903892B9091C803892B8093B403E09184
:101110005304F0915404309731F00280F381E02DB4
:1011200084EB93E009940895E6EBF3E09191891341
:1011300003C0DF0111971C9293E0EC3BF907B1F774
:101140000895A6EBB3E0EFEF90E02D91821751F0F8
:10115000EF3F19F4211101C0E92F9F5F9630A9F7E5
:10116000EF3F09F408950E2E000CFF0BEC54FC4FDA
:10117000828308958F929F92AF92BF92DF92EF92F7
:10118000FF920F931F93CF93DF938090D2039090A1
:10119000D303A090D403B090D5034091CB035091DA
:1011A000CC036091CD037091CE03842A952AA62AA0
:1011B000B72ACFE1D0E0E92EF12C082F10E0DC2E89
:1011C000D501C4010C2E04C0B695A79597958795B7
:1011D0000A94D2F780FD10C0219788F7D12C8D2D6D
:1011E000DF91CF911F910F91FF90EF90DF90BF9013
:1011F000AF909F908F900895FE01EE0FFF1FEC0FB0
:10120000FD1FEE0DFF1DEE0FFF1FEE0FFF1FE00F86
:10121000F11FEE0FFF1FEA59FD4F859194910E9437
:10122000FE060197C9F2DBCF990F990F890F982F0E
:10123000977086958695869525E0829FF00111240A
:10124000E254FC4F50E040E080E0219130E0092E74
:1012500002C0369527950A94E2F721703327042EB1
:1012600001C0220F0A94EAF7822B4F5F5F4F45308F
:10127000510559F70895990F990F890F982F977075
:1012800041E001C0440F9A95EAF7869586958695C8
:1012900095E0899FF0011124E254FC4F30E020E0FA
:1012A00070E05191DF011197CB01022E02C096959B
:1012B00087950A94E2F78170819585278423852795
:1012C0008C932F5F3F4F2530310559F7089590E0FB
:1012D00080E00E94590490E080E00E944304109254
:1012E000C9031092C8030E947D0886E0EBE4F4E095
:1012F000DF011D928A95E9F710924504109244048B
:10130000109246040C94A9056093CB037093CC0310
:101310008093CD039093CE030C946709882309F43E
:1013200059C0823871F40E946F0481FF53C089E371
:101330000E94A1080E947D0889E30E9494080C94F1
:101340007D08833859F40E946F0480FF43C083E511
:101350000E94A1080E947D0883E5EFCF843859F4EC
:101360000E946F0482FF36C087E40E94A1080E9499
:101370007D0887E4E2CF9CEF980F913AF0F290E27B
:10138000980F983088F4877021E030E0A90102C0FE
:10139000440F551F8A95E2F7CA0180959091CA03C0
:1013A00089238093CA03CBCF9BE5980F933020F419
:1013B00090E080E00C94590498E5980F973120F460
:1013C00090E080E00C9443048D3E20F00E94D00514
:1013D0000C94A90508952091E0032230E9F118F456
:1013E000213041F00895233009F445C0243009F438
:1013F0006CC008958333910509F4B3C0B0F484310F
:10140000910509F4A8C048F48430910509F4A0C0FE
:101410008031910509F499C008958A31910541F10F
:101420008D31910509F48EC008958633910509F434
:1014300095C048F48433910509F478C0853391054B
:1014400009F477C008958733910509F48DC0883376
:10145000910509F48CC008958D31910509F46CC093
:101460008D32910509F46BC08C31910509F084C06F
:101470008DE190E008958D31910509F463C090F4F9
:101480008031910509F461C028F48430910509F494
:101490005FC008958431910509F45DC08A319105DA
:1014A00039F308958633910509F458C028F483333D
:1014B000910509F456C008958733910509F454C085
:1014C0008833910509F453C00895FC013797ED3234
:1014D000F10508F051C0EA5EF84D0C94D72283E183
:1014E00090E008958AE090E008958DE090E00895FE
:1014F0008FE090E0089588E190E0089585E190E024
:10150000089586E190E0089587E190E0089587E0EE
:1015100090E0089588E090E008958CE090E00895D0
:1015200082E190E008958EE090E0089585E390E0F8
:1015300008958FE194E008958CE190E0089586E1AC
:1015400094E008958AE190E0089586E390E008959C
:1015500084E190E0089584E090E0089583E390E0D2
:10156000089580E190E0089583E392E008958EE18C
:1015700092E0089589E090E008958091D2039091DF
:10158000D303A091D403B091D5030097A105B10571
:1015900041F080FD06C0B695A79597958795817017
:1015A000089580E00895CF93DF938C3018F59FEF76
:1015B000960F9730F8F49FE0899FD0011124ED0138
:1015C000CA58DB4F6883A958BB4F96E0FA010190D7
:1015D0000D929A95E1F718861F821986FA0190817B
:1015E0009A8791819B8792819C8761E0DF91CF915F
:1015F0000C94D704DF91CF91089580935C0470938D
:101600005E0460935D0480917504843001F582E08E
:101610008093E9008FEF9091E800815095FD06C01E
:1016200095ED9A95F1F700008111F5CF8091E800D2
:1016300085FF0DC050E040E063E070E08CE594E091
:101640000E94D9028091E8008E778093E800089587
:10165000BC0184E00C94FD0ABC0183E00C94FD0AFB
:101660009C0182E08093E9009FEF8091E800915017
:1016700085FD06C085ED8A95F1F700009111F5CF43
:101680008091E80085FF0CC050E040E066E070E02B
:10169000C9010E94D9028091E8008E778093E8000A
:1016A0000895CF93DF93EC0181E08093E9008FEF01
:1016B0009091E800815095FD06C095ED9A95F1F75F
:1016C00000008111F5CF8091E80085FF14C050E043
:1016D00040E068E070E0CE010E94D9028091E8000D
:1016E0008E778093E80088E0FE01A2E6B4E00190E6
:1016F0000D928A95E1F7DF91CF9108958C30E8F44F
:10170000E82FF0E0ED5BF84D83E0489FA001112445
:101710000C94D722269A85B1806495B19F7B2FB710
:10172000F894460F571F6417750741F42FBF8FE5D4
:1017300094E00197F1F700C000000895FB0131919A
:10174000BF01E8E085B9000000C037FF95B9330F4D
:10175000000000C000C000C095B900C0EA9591F734
:10176000E2CF229A85B1846095B19B7F2FB7F89420
:10177000460F571F64177507C9F2FB013191BF016E
:10178000E8E085B9000000C037FF95B9330F0000CD
:1017900000C000C000C095B900C0EA9591F7EACF3B
:1017A000239A85B1886095B1977F2FB7F894460F3B
:1017B000571F6417750709F4B9CFFB013191BF01B9
:1017C000E8E085B9000000C037FF95B9330F00008D
:1017D00000C000C000C095B900C0EA9591F7E9CFFC
:1017E000219A85B1826095B19D7F2FB7F894460FFD
:1017F000571F6417750709F499CFFB013191BF0199
:10180000E8E085B9000000C037FF95B9330F00004C
:1018100000C000C000C095B900C0EA9591F7E9CFBB
:10182000259A85B1806295B19F7D2FB7F894460FB8
:10183000571F6417750709F479CFFB013191BF0178
:10184000E8E085B9000000C037FF95B9330F00000C
:1018500000C000C000C095B900C0EA9591F7E9CF7B
:10186000249A85B1806195B19F7E2FB7F894460F79
:10187000571F6417750709F459CFFB013191BF0158
:10188000E8E085B9000000C037FF95B9330F0000CC
:1018900000C000C000C095B900C0EA9591F7E9CF3B
:1018A0006E9A8EB180649EB19F7B2FB7F894460FDD
:1018B000571F6417750709F439CFFB013191BF0138
:1018C000E8E08EB9000000C037FF9EB9330F00007A
:1018D00000C000C000C09EB900C0EA9591F7E9CFF2
:1018E000579A8BB180689BB19F772FB7F894460FBA
:1018F000571F6417750709F419CFFB013191BF0118
:10190000E8E08BB9000000C037FF9BB9330F00003F
:1019100000C000C000C09BB900C0EA9591F7E9CFB4
:101920003E9A88B1806498B19F7B2FB7F894460F98
:10193000571F6417750709F4F9CEFB013191BF01F8
:10194000E8E088B9000000C037FF98B9330F000005
:1019500000C000C000C098B900C0EA9591F7E9CF77
:10196000549A8BB180619BB19F7E2FB7F894460F3C
:10197000571F6417750709F4D9CEFB013191BF01D8
:10198000E8E08BB9000000C037FF9BB9330F0000BF
:1019900000C000C000C09BB900C0EA9591F7E9CF34
:1019A000509A8BB181609BB19E7F2FB7F894460F00
:1019B000571F6417750709F4B9CEFB013191BF01B8
:1019C000E8E08BB9000000C037FF9BB9330F00007F
:1019D00000C000C000C09BB900C0EA9591F7E9CFF4
:1019E000559A8BB180629BB19F7D2FB7F894460FBB
:1019F000571F6417750709F499CEFB013191BF0198
:101A0000E8E08BB9000000C037FF9BB9330F00003E
:101A100000C000C000C09BB900C0EA9591F7E9CFB3
:101A2000AF92BF92CF92DF92FF920F931F93CF930B
:101A3000DF93CDB7DEB7E0970FB6F894DEBF0FBEE9
:101A4000CDBF162F042FF22E8C3000F5E82FF0E0DA
:101A5000E15BF84DCE0101966C015E010C94D7223A
:101A60009DE0A90EB11C96014F2D602F812F0E9481
:101A7000150583E0C80ED11CAC14BD04A1F744E0E9
:101A8000BE016F5F7F4F80E00E947E0BE0960FB635
:101A9000F894DEBF0FBECDBFDF91CF911F910F91A4
:101AA000FF90DF90CF90BF90AF9008959DE0A90E7A
:101AB000B11C96014F2D602F812F0E94150583E0E8
:101AC000C80ED11CAC14BD04A1F744E0BE016F5F89
:101AD0007F4F81E0D9CF96E1A90EB11C96014F2D21
:101AE000602F812F0E94150583E0C80ED11CCA14F7
:101AF000DB04A1F747E0BE016F5F7F4F82E0C4CFF8
:101B00009DE0A90EB11C96014F2D602F812F0E94E0
:101B1000150583E0C80ED11CCA14DB04A1F744E00C
:101B2000BE016F5F7F4F83E0AFCF9DE0A90EB11C78
:101B300096014F2D602F812F0E94150583E0C80E5E
:101B4000D11CCA14DB04A1F744E0BE016F5F7F4FD4
:101B500084E09ACF9DE0A90EB11C96014F2D602F15
:101B6000812F0E94150583E0C80ED11CCA14DB0426
:101B7000A1F744E0BE016F5F7F4F85E085CF9DE018
:101B8000A90EB11C96014F2D602F812F0E941505C3
:101B900083E0C80ED11CCA14DB04A1F744E0BE01E7
:101BA0006F5F7F4F86E070CF90E1A90EB11C960168
:101BB0004F2D602F812F0E94150583E0C80ED11C88
:101BC000CA14DB04A1F745E0BE016F5F7F4F87E0D9
:101BD0005BCF9DE0A90EB11C96014F2D602F812F88
:101BE0000E94150583E0C80ED11CCA14DB04A1F7BE
:101BF00044E0BE016F5F7F4F88E046CF9DE0A90EB5
:101C0000B11C96014F2D602F812F0E94150583E096
:101C1000C80ED11CCA14DB04A1F744E0BE016F5FFB
:101C20007F4F89E031CF9DE0A90EB11C96014F2D69
:101C3000602F812F0E94150583E0C80ED11CCA14A5
:101C4000DB04A1F744E0BE016F5F7F4F8AE01CCF49
:101C500090E1A90EB11C96014F2D602F812F0E949B
:101C6000150583E0C80ED11CCA14DB04A1F745E0BA
:101C7000BE016F5F7F4F8BE007CFCF93DF93EB0108
:101C800099859230C9F49E81992341F02E852917B8
:101C900028F060E0DF91CF910C94D7046A856F5FE4
:101CA0006A872C854B850E94100D9A85898198132F
:101CB00003C08E858F5F8E87DF91CF910895FF924D
:101CC0000F931F93CF93DF93F82EEB018A018E8140
:101CD000882321F09E8560E09817C8F489858230BA
:101CE00041F08330E1F0DF91CF911F910F91FF9090
:101CF00008952B814A8169818F2D0E94100D8F815B
:101D00009885081B190B63E00F3F1F4760F78F2D65
:101D1000DF91CF911F910F91FF900C94D70420E099
:101D200040E060E08F2D0E94100D8F819885081B88
:101D3000190B0F3F1F47B8F68E858F5F8E8762E0C5
:101D4000E6CFFF920F931F93CF93DF93F82EEB0113
:101D50008A018985823021F52C854B856A858F2DF6
:101D60000E94100D8F8198859801281B390BC9019D
:101D70008F3F9F47A8F49E818C85891B8C8798177D
:101D800048F060E08F2DDF91CF911F910F91FF9070
:101D90000C94D7044C815D81400F511F58874F83AD
:101DA000DF91CF911F910F91FF900895FB01238147
:101DB000428161810C94100D7F928F929F92AF921D
:101DC000BF92CF92DF92EF92FF920F931F93CF9328
:101DD000DF93CDB7DEB7E0970FB6F894DEBF0FBE46
:101DE000CDBFF82E8B016A012BE0712C281728F04B
:101DF000E82FF0E0EA55FC4F7080F80181858230D1
:101E0000B9F0833009F464C0E0960FB6F894DEBFF1
:101E10000FBECDBFDF91CF911F910F91FF90EF903B
:101E2000DF90CF90BF90AF909F908F907F9008955C
:101E30009E012F5F3F4F5901E12C4901F801858533
:101E4000E71039C09401F3E08F9F200D311D11245C
:101E50004FEF60E080E00E9415054E2DB4018F2DFC
:101E60000E947E0BF801878190859601281B390B13
:101E7000C9018F3F9F47A0F485858F5F6E2D0E941B
:101E8000A3229587911105C086858F5F868781E0A3
:101E90008587F80184819581C80ED91ED086C782B6
:101EA000F8019685868163E0981708F4ADCF8F2DF1
:101EB0000E94D704A9CFE81631F0950140E060E018
:101EC00080E00E941505E39433E0A30EB11CB6CF69
:101ED000878190859601281B390B2F3F3F4710F4CF
:101EE00060E0E5CF8C199D096AEF70E00E94AF2297
:101EF00060FF07C020E040E060E08F2D0E94100DE1
:101F000083CF9E012F5F3F4FF80143816281818122
:101F10000E9415059E012F5F3F4F690111E033E0DC
:101F2000C30ED11C171540F0472DBE016F5F7F4FC8
:101F30008F2D0E947E0B68CF96014FEF60E080E00E
:101F40000E9415051F5FEBCF8F929F92AF92BF92B9
:101F5000CF92DF92EF92FF920F931F93CF93DF9375
:101F6000CDB7DEB7E0970FB6F894DEBF0FBECDBF9A
:101F7000E82E8B016A012BE0F12C281728F0E82FBE
:101F8000F0E0EA55FC4FF080F8014381B42EB6949E
:101F9000B69481858230B1F0833009F48DC0E0962B
:101FA0000FB6F894DEBF0FBECDBFDF91CF911F916A
:101FB0000F91FF90EF90DF90CF90BF90AF909F90E8
:101FC0008F900895878190859601281B390BC90150
:101FD0008F3F9F47A8F4858590E001966F2D70E0B4
:101FE0000E94C3220097E9F18587F80184859681D4
:101FF000891B848784819581C80ED91ED086C782AB
:102000009E012F5F3F4F40E060E080E00E94150599
:10201000F801858521E030E02C0F3D1FF3E08F9F14
:10202000200D311D1124F8014485638582850E94AD
:102030001505CC24C394D12C93E0A92ECF1498F08D
:102040004F2DBE016F5F7F4F8E2D0E947E0BF801DA
:10205000848563E08B1508F0A2CF8E2D0E94D704F3
:102060009ECF81E0C1CFF80125852C0D8485869512
:1020700090E0B6010E94C322362F562F2F1530F064
:10208000822F6F2D0E94A32221E0290F81E090E092
:102090008C0F9D1F2A9D800D911D11244B2DB5166F
:1020A00008F4432F9C01F801638582850E94150581
:1020B000FFEFCF1ADF0AC2CF9E012F5F3F4F628131
:1020C00081810E9415059E012F5F3F4F4901AA247F
:1020D000A394F3E08F0E911CAF14A0F04F2DBE011E
:1020E0006F5F7F4F8E2D0E947E0BF8018781908558
:1020F000C81AD90AFFEFCF16FFE7DF0608F04FCF67
:1021000060E0ABCF94014B2DF801628181810E9488
:102110001505A394DECFCF93C82F882309F490C070
:102120008238C1F40E946F0481FD8AC089E30E9455
:10213000A1080E947D082FEF81EE94E0215080409D
:102140009040E1F700C0000089E30E949408CF911D
:102150000C947D088338A1F40E946F0480FD70C048
:1021600083E50E94A1080E947D082FEF81EE94E094
:10217000215080409040E1F700C0000083E5E5CFAA
:102180008438A1F40E946F0482FD5AC087E40E9443
:10219000A1080E947D082FEF81EE94E0215080403D
:1021A0009040E1F700C0000087E4CFCF8CEF8C0FA8
:1021B000813A68F4E6EBF3E08191C817D9F123E0A6
:1021C000EC3BF207C9F78C2F0E94A108C0CF80E238
:1021D0008C0F883068F4C77021E030E001C0220F16
:1021E000CA95EAF78091CA03822B8093CA03AFCFC6
:1021F000EBE5EC0FE33040F4F0E0EC5AFC4F80816B
:1022000090E0CF910C945904E8E5EC0FE73150F4DD
:10221000F0E0EE0FFF1FE95AFC4F80819181CF91D2
:102220000C944304CD3E60F08C2F0E948B06CF911E
:102230000C94A9058C2F0E9494080E947D08C3CF9E
:10224000CF910895CF93C091E9002091EC00922F97
:10225000917020FD90E82091530120FF12C0CF70B3
:10226000C92B909144019F709093E9009091EB00ED
:1022700090FF04C09091EE0097FD05C0CF70C09311
:10228000E900CF91089590E02091E800915025FD5C
:1022900006C025ED2A95F1F700009130A9F780934B
:1022A000F10083E491E00E94A7028091E80080FFA2
:1022B000E5CF8091E8008E778093E800DFCFCF9361
:1022C000DF93EC0188810E94221189810E942211F2
:1022D0008A81DF91CF910C942211FC0180810C94B2
:1022E00022111F93CF93DF93172FD82FC92F862F3B
:1022F0000E942211812F0E9422118D2F0E942211F3
:102300008C2FDF91CF911F910C942211CF93C92F65
:102310000E9422118C2FCF910C942211CF92DF9228
:10232000EF92FF92CF93DF930F92CDB7DEB76B01A1
:102330007C01C114D104E104F10409F160FD1FC066
:10234000DC01CB01B695A7959795879580FF0DC0C9
:1023500081E0898383E00E94221181E090E00E9465
:102360008611CE0101960E946D11C701B6010F9032
:10237000DF91CF91FF90EF90DF90CF90089580E0B4
:10238000E8CF0E948E116093D2037093D3038093A1
:10239000D4039093D5030C9467092F923F924F92E8
:1023A0005F926F927F928F929F92AF92BF92CF92E5
:1023B000DF92EF92FF920F931F93CF93DF93CDB7EE
:1023C000DEB763970FB6F894DEBF0FBECDBF82E0D5
:1023D0000E9422110E94BD0A0E94221122E533E0D0
:1023E000398B288B80E092E09F838E83E6E6F2E0D3
:1023F000FD83EC83312C212CE889F9898191F98BBB
:10240000E88B0E94221126EA31E03F872E872AEFCF
:10241000822E20E0922E8C819D814096998788871C
:102420003B862A86EE81FF81FD87EC878A859B8526
:102430008C969B838A83AC84BD84EE85FF85FB8B61
:10244000EA8B83E0C82ED12CF401EC0DFD1D8491A4
:102450000E942211F601EE0FFF1F28853985E20F39
:10246000F31F85919491865A0E942211EA89FB8973
:10247000108DF18DF983EA89FB89428C538C648C31
:10248000758CE68CF78C812F0E942211212F3981C7
:10249000A201B301C70108E00E94DF22822F0E943F
:1024A0002211212F3981A201B301C70100E10E944D
:1024B000DF22822F0E942211212F3981A201B30134
:1024C000C70108E10E94DF22822F0E942211212FE2
:1024D0003981A201B301C70100E20E94DF22822FED
:1024E0000E942211212F3981A201B301C70108E204
:1024F0000E94DF22822F0E942211212F3981A20106
:10250000B301C70100E30E94DF22822F0E94221143
:10251000212F3981A201B301C70108E30E94DF2204
:10252000822F0E942211EA81FB81E250FF4F6591C8
:102530007591859194910E947111EA81FB81E25A13
:10254000FE4F65917591859194910E947111F501ED
:10255000859194910E942211F50132968591949172
:102560000E942211F5013496859194910E942211C6
:10257000F1E0CF1AD1082A893B89285031093B8BD9
:102580002A8B36E0A31AB1088A819B8104979B832A
:102590008A839FEFC916D90609F056CFEE85FF85CD
:1025A000B097FF87EE872C853D85285131093D87FF
:1025B0002C878A859B8540979B878A87C4010497CF
:1025C000E885F9853897F987E88722EF30E0281504
:1025D000390511F04C012ACF2E813F81285B3F4FF6
:1025E0003F832E8330E3230E311C8C819D814896DE
:1025F0009D838C8390E62916310409F0FDCEE6E92F
:10260000F2E0849163960FB6F894DEBF0FBECDBFA3
:10261000DF91CF911F910F91FF90EF90DF90CF90BE
:10262000BF90AF909F908F907F906F905F904F90F2
:102630003F902F900C9422118F929F92AF92BF9255
:10264000CF92DF92EF92FF921F93CF93DF93182FD9
:10265000EB018985823009F078C08F8198859A01D5
:10266000281B390BC9018F3F9F4748F48E858F5F28
:102670008E878C819D81840F951F98878F838E8193
:10268000882391F09E85981778F060E0812FDF9184
:10269000CF911F91FF90EF90DF90CF90BF90AF90C0
:1026A0009F908F900C94D7046F817885641B750B75
:1026B00090E080E00E9496246B017C016C817D811A
:1026C00090E080E00E9496249B01AC01C701B60116
:1026D0000E94BB232BED3FE049E450E40E944C26CE
:1026E0000E94B9260E9435246B017C016C8570E044
:1026F00090E080E00E9498242EEF3CE646E150E412
:102700000E94BB234B015C012DE43CED44E75FE3F9
:10271000C701B6010E9449239B01AC01C501B40168
:102720000E944C260E946724262F4B856A85812FA4
:10273000DF91CF911F91FF90EF90DF90CF90BF90EE
:10274000AF909F908F900C94100DDF91CF911F91BF
:10275000FF90EF90DF90CF90BF90AF909F908F90C1
:1027600008951092CA03E6EBF3E086E0DF011D92C4
:102770008A95E9F70C9467091F93CF93DF93CDB740
:10278000DEB7AA970FB6F894DEBF0FBECDBF8DE6B9
:1027900094E02091F100FC012193CF01F4E0853712
:1027A0009F07B9F780916E04833009F4B9C008F02F
:1027B0004CC0813009F47FC0823009F4F9C08091A7
:1027C000E80083FF9CC020914301809171049091A7
:1027D00072042817190609F092C080916E048132A4
:1027E00009F406C108F0F5C0803209F088C0809174
:1027F0006D04813209F083C08091E800877F809367
:10280000E8008091E80082FF30C13091F100209112
:10281000F1009091F1008091F100309357012093E5
:1028200058019093590180935A018091F10080934F
:102830005B018091F10080935C018091F1008093B5
:102840005D018091E8008B770BC18A3009F49FC04D
:102850008B3009F482C0893009F0B1CF80916D04CA
:10286000813209F0ACCF809171049091720402978B
:1028700008F0A5CF8091E800877F8093E8008091E1
:10288000E80082FF38C09091F3008091F200029737
:1028900031F48091F100813011F0863021F4809183
:1028A000F100809361048091E8008B778093E800C9
:1028B0000E94030384CF80916D04813A09F07FCF99
:1028C0008091E800877F8093E80080917104909167
:1028D0007204892B61F468E082E694E070E00E9463
:1028E000B5038091E8008B778093E80068CF60E0C3
:1028F00090E080E0F3CF809175048111C0CF80918A
:10290000E80083FF9CC280916D0490916E049A3020
:1029100008F095C2E92FF0E0E55AF84D0C94D72263
:1029200080916D04813A09F04ACF809171049091B1
:102930007204892B09F043CF8091E800877F809350
:10294000E8008091E80080FFFCCF809142018093F5
:10295000F1008091E8008E77A9CF80916D048132DB
:1029600009F02DCF8091710490917204892B09F0A8
:1029700026CF8091E800877F8093E8000E940303C0
:1029800080916F04809342010E94B11318CF80910F
:102990006D04813209F013CF8091E800877F809326
:1029A000E8000E940303809170048093600407CFC5
:1029B00080916D04813A09F002CF8091E800877F11
:1029C0008093E8008091E80080FFFCCF8091600454
:1029D000BECF823209F44EC0833209F090CF80918D
:1029E0006D04813209F08BCF8091E800877F38C079
:1029F00080916D04813A09F082CF8091E800877F51
:102A00008093E8008091E80080FFFCCF809157011F
:102A100090915801A0915901B0915A018093F10011
:102A2000492F5A2F6B2F77274093F100AD0166276E
:102A300077274093F1008B2F9927AA27BB278093F4
:102A4000F10080915B018093F10080915C018093A3
:102A5000F10080915D018093F1008091E8008E7714
:102A60008093E8000E9403034ACF8091750481118E
:102A7000C8CE45CF80916D04813209F040CF80915E
:102A8000E800877F8093E8000E94030380916F0431
:102A900090917004909354018093530130CF80380B
:102AA00099F0823809F0CBC1809171048F70873022
:102AB00008F0C5C18093E9008091EB0085FB882771
:102AC00080F91092E90006C080916A0490916B042D
:102AD000911182609091E800977F9093E800809335
:102AE000F1001092F1008091E8008E77A4C1882354
:102AF00009F492C1823009F0A2C180916F04811162
:102B000095C1809171048F702FEF280F263008F047
:102B100096C18093E9002091EB0020FF87C193309C
:102B200031F48091EB0080628093EB007FC1909143
:102B3000EB0090619093EB0021E030E001C0220FA8
:102B40008A95EAF72093EA001092EA008091EB0060
:102B50008860EACF811173C110916F041F77809153
:102B6000E3008078812B8093E3008091E800877FE9
:102B70008093E8000E9403038091E80080FFFCCF6F
:102B80008091E30080688093E30082E0111183E08C
:102B90008093750454C18058823008F050C18091F0
:102BA0006F04909170048C3D23E09207A1F583E0BF
:102BB0008A838AE289834FB7F894DE01139620E076
:102BC0003EE051E2E32FF0E050935700E49120FF04
:102BD00003C0E295EF703F5FEF708E2F90E0EA3018
:102BE000C0F0C7968D939D932F5F243159F74FBF47
:102BF0008091E800877F8093E8006AE270E0CE0170
:102C000001960E94B5038091E8008B778093E800DD
:102C100016C1C096E7CF4091710450917204292FDC
:102C200033272330310509F444C078F521303105CC
:102C300009F46FC088E790E0E2E5F3E02230310567
:102C400009F0FDC02091E800277F2093E800209143
:102C50007304309174048217930708F49C0140E0D8
:102C60002115310509F064C0411162C08091E8006E
:102C700082FDC9CF80917504882329F2853019F22D
:102C80008091E80083FFF2CFBECF21323105A9F158
:102C90002232310509F0D3C04115510509F443C072
:102CA0004130510509F0CBC08BE790E0E7E9F2E055
:102CB000C9CF992781309105C1F0009759F002974B
:102CC00009F0BDC0ECEDF3E0E4918E2F90E0ECED67
:102CD000F3E007C0E8E1F4E0E4918E2F90E0E8E152
:102CE000F4E0009709F4ABC0ADCFEEEFF3E0E49170
:102CF0008E2F90E0EEEFF3E0F4CF4115510571F027
:102D00004130510509F09BC089E090E0EDE7F3E028
:102D100099CF82E190E0EAECF3E094CF89E090E093
:102D2000E4E6F3E08FCF80E490E0E2E1F3E08ACFE5
:102D300080917504882309F466CF853009F463CF48
:102D40008091E80083FD5FCF8091E80082FD8ECF07
:102D50008091E80080FF84CF9091F3008091F20091
:102D60002115310519F08830910550F041E00897A0
:102D700009F040E08091E8008E778093E80070CF02
:102D800044914093F1003196215031090196E8CFEA
:102D9000803809F054C08091E800877F8093E80074
:102DA00080916C048093F1009ECE811148C01091F7
:102DB0006F04123008F043C08091E800877F809351
:102DC000E80010936C040E940303112311F084E0C7
:102DD00005C08091E30087FDFACF81E08093750400
:102DE00042E061EC81E00E94220342E261EC82E079
:102DF0000E94220342E061EC83E00E94220342E150
:102E000060E885E00E94220342E161E884E00E94DC
:102E100022038091750413C080916F04813079F48E
:102E200081E0933009F080E080936B041092E90018
:102E30008091E800877F8093E8000E9403038091DF
:102E4000E80083FF0AC08091E800877F8093E80054
:102E50008091EB0080628093EB00AA960FB6F89405
:102E6000DEBF0FBECDBFDF91CF911F910895CF93ED
:102E700084E090E00E940723C82F82E290E00E9445
:102E80000723982F8C2FCF9108959F92AF92BF92D6
:102E9000CF92DF92EF92FF920F931F93CF93DF9326
:102EA00000D00F92CDB7DEB719821A821B8285E857
:102EB000E82E83E0F82E10E000E0CC24C394D12C5F
:102EC0002CE8A22E23E0B22EF70181917F018F3FE3
:102ED00009F445C0F894E82FE295EF70F0E021A1E5
:102EE0008F70A60102C0440F551F8A95E2F7CA01F0
:102EF000922F982B91A392A18095892382A37894F5
:102F000000C0E8E8F3E0912C31E021912F3F09F473
:102F100064C0A22FA295AF70B0E090968C9190E023
:102F20002F7002C0959587952A95E2F780FD55C0D0
:102F3000832F982A330FAE16BF0639F7F701319762
:102F400080818F3F11F00E94E70650EA5A95F1F711
:102F5000E1E0F0E0EC0FFD1FE00FF11F90820F5F4A
:102F60001F4F0330110509F0AFCF43E050E0BE0121
:102F70006F5F7F4F8CED93E00E94FA2211E0009783
:102F800009F410E0892B59F189819A81AB818093F2
:102F9000DC039093DD03A093DE0381E08093D103F3
:102FA0000E9437049093D0038093CF038091CF0386
:102FB0009091D0030E9428040597A8F08091DC032B
:102FC0008093E1038091DD038093E2038091DE032F
:102FD0008093E3031092D10306C080E0AACF8091D2
:102FE000D1038111E3CF812F0F900F900F90DF91CC
:102FF000CF911F910F91FF90EF90DF90CF90BF90F6
:10300000AF909F90089569EE7EEF90E080E00E947F
:10301000332360E082E090E00E94152360E083E0CB
:1030200090E00E9415231092CB031092CC031092D3
:10303000CD031092CE0360E084E090E00E9415235F
:1030400060E082E290E00E94152360E085E090E07D
:103050000E94152360E086E090E00E9415236FEF48
:1030600087E090E00E94152340E050E0BA0188E03C
:1030700090E00E94272360E08DE090E00E941523FD
:1030800040E050E0BA0188E190E00E94272360E030
:1030900087E190E00E94152340E050E0BA018CE106
:1030A00090E00E94272370E060E080E290E00E94C0
:1030B000332340E050E0BA0188E190E00E942723EA
:1030C00040E050E0BA018FE090E00E94272340E00A
:1030D00050E0BA0183E190E00C9427232F923F92B5
:1030E0004F925F926F927F928F929F92AF92BF9218
:1030F000CF92DF92EF92FF920F931F93CF93DF93C4
:10310000CDB7DEB764970FB6F894DEBF0FBECDBF64
:103110004B8B92E0961B990F990F981B9D5F9C8B90
:1031200086E0489FF0011124E050FF4FDE01119628
:1031300001900D928A95E1F78B89813009F0F6C0F4
:10314000622F70E090E080E00E94962421E830E851
:1031500040E85BE30E944C266F8378876C01602F08
:1031600070E090E080E00E94962421E830E840E89A
:103170005BE30E944C2669877A87382E292E6E2DB4
:1031800070E090E080E00E94962421E830E840E87A
:103190005BE30E944C267B018C0129853A85432DF7
:1031A000522D6F817885C6010E94D1259701A80113
:1031B00018160CF0E2C06F817885C6010E94D125F7
:1031C0008F8098845601181614F0470158012985FC
:1031D0003A85432D522D6F817885C6010E94B62312
:1031E0009701A80187FFD7C06F817885C6010E942B
:1031F000B62387FDDFC0EB86FC860D871E872B85F7
:103200003C854D855E85B401C5010E9449236F87C9
:10321000788B898B9A8B9401A5016B857C858D8534
:103220009E850E94B623882309F40FC19401A5014D
:103230006F817885C6010E94B6238111C2C09701B3
:10324000A80169857A85832D922D0E9449232F85B7
:10325000388949895A890E94BB2320E030E040E741
:1032600052E40E944C2620E030E044EB53E40E94FC
:103270004A2320E030E044EB53E40E94DE242B019B
:103280003C0120E030E0A901B401C5010E94B62351
:10329000C12CD12C7601882381F09401A5016F8582
:1032A000788989899A890E94BB2320E030E048EC24
:1032B00052E40E944C266B017C0120E030E044EB9C
:1032C00053E4C301B2010E94BB2320E030E04FE78A
:1032D00053E40E944C260E946724698320E030E07A
:1032E00048EC52E4C701B6010E94BB2320E030E065
:1032F0004FE753E40E944C260E9467246A8320E033
:1033000030E048EC52E4B401C5010E944C2620E0B4
:1033100030E048EC52E40E94BB2320E030E04FE76D
:1033200053E40E944C260E9467246B83AE014F5FDA
:103330005F4F6B898C890E94D30A9B89913021F061
:1033400062E08C890E94D70464960FB6F894DEBFC1
:103350000FBECDBFDF91CF911F910F91FF90EF90E6
:10336000DF90CF90BF90AF909F908F907F906F90A5
:103370005F904F903F902F90089569857A85832DB7
:10338000922D0E94D12518160CF01FCF89849A84A3
:10339000A32CB22C1CCF69857A85832D922D0E9497
:1033A000B62387FF28CF99859B878A858C873D86A2
:1033B0002E8625CF9F819B8788858C87CD86DE864C
:1033C0001ECF9401A50169857A85832D922D0E94D7
:1033D000B623811118C02F813885A601B701C80115
:1033E0000E9449232F85388949895A890E94BB2325
:1033F00020E030E040E752E40E944C2620E030E03C
:1034000040EF52E434CF9401A501B701C8010E94F6
:10341000B623811136CF29853A85432D522D6F81F0
:103420007885C6010E9449232F85388949895A89A0
:103430000E94BB2320E030E040E752E40E944C268B
:1034400020E030E040E753E412CF412C512C320110
:1034500018CFEF920F93CF93DF93D0E0C0E0E12C31
:1034600000E020E043E06D2F8C2F0E946E18CF5FAC
:10347000C430A9F7DF5FD33089F7DF91CF910F9187
:10348000EF9008958091BC03882341F08091F70369
:10349000811109C00E94291A1092BC0360E177E2F1
:1034A00080E090E008951092F703F8CF0F931F93F8
:1034B000182F60E070E0CB010E94C11161E070E064
:1034C00080E090E004C0660F771F881F991F1A954F
:1034D000D2F70091D2031091D3032091D4033091FD
:1034E000D503602B712B822B932B0E94C1111F914E
:1034F0000F910C94291A6F927F928F929F92AF92A4
:10350000BF92CF92DF92EF92FF920F931F93CF93D0
:10351000DF93CDB7DEB72B970FB6F894DEBF0FBEA3
:10352000CDBF4F835887762E69877A878B87611145
:103530001092C9038A859B85892B39F00F81688495
:10354000862D80238F3F09F0F2C02B960FB6F8949A
:10355000DEBF0FBECDBFDF91CF911F910F91FF90C6
:10356000EF90DF90CF90BF90AF909F908F907F9023
:103570006F9008950E94BA08182F682F89819A8148
:103580000E943B09E62CF12CA02EB12C83E0F70120
:10359000189FE00DF11D1124EE0FFF1FEE0FFF1F0E
:1035A000EA0DFB1DEE0FFF1FEA59FD4F8590949029
:1035B000C82EC01A12E016190E94BD0AE82FF0E0CA
:1035C000EE5AFC4F90818091BC03111122C021E082
:1035D0002C15F8F07720D9F02091BD032223B9F003
:1035E000882341F084E00E94221190E080E00E9454
:1035F0008611ABCF0E94B1130E94BD0A813011F039
:1036000011E0180F812F90E00E94561A9ECF709201
:10361000BD03D62CDD0CDD0CD00EEBEB8E16EDE5EC
:103620009E0608F48EC09401245C3D45882309F46D
:103630008AC02330310508F086C0923008F483C078
:10364000772009F482CF0E94BD0A8983CA821B8336
:1036500082E00E94221183E090E00E948611CE0158
:1036600001960E945F1171CF0E5F1F4F080F191F47
:10367000000F111F02541E4FF12CE12CF80185910F
:1036800094919927009721F00E94EB090E948E09DE
:10369000EFEFEE1AFE0A02501109F3E0EF16F10403
:1036A00069F762E08D2D0E94D7044FCF26E0289F56
:1036B0008001299F100D1124EE5AFC4F808180FD5E
:1036C00016C004571D4F7720A9F0480126E0820E4E
:1036D000911CF801819191918F01009721F00E9436
:1036E000EB090E948B108016910699F768C00A5367
:1036F0001E4FE9CF7801F8E0EF0EF11CF70192912F
:1037000082917F01009721F00E94EB090E948E09AF
:103710000E151F0599F7C5CFC4010E94EB0977204C
:1037200019F00E948B104BC00E948E09BACF0983FA
:103730006A8289819A8171101DCF0E941409182F05
:1037400021CF81117ACF0E94BD0AC82EC401865AAA
:103750009D458132910500F7EC2DF0E026EA8216B6
:103760002DE5920609F0A2CF83E0089F8001112485
:10377000ECE06E9E000D111D1124F4E2CF9EC001FD
:103780001124772009F470CF080F191F000F111FA3
:1037900002541E4F912C812CF80185919491992708
:1037A000009721F00E94EB090E948B102FEF821AE4
:1037B000920A0E5F1F4F83E08816910469F7F701A4
:1037C00023E0C29EE00DF11D1124EE0FFF1FEE0F4E
:1037D000FF1FEA0DFB1DE25BFD4F64918FEF860F2B
:1037E000F0E0E0E0873030F486E0689FF0011124DB
:1037F000E050FF4F86E0DE01119601900D928A9510
:10380000E1F7AE014F5F5F4F8D2D0E94D30A9DCE31
:10381000EF920F938091F0039091F103892BE1F4E3
:103820008091F20381111BC00E94221184E090E07C
:103830000E94861161E070E080E090E00E947111CA
:103840001092F3031092F4031092F5031092F60312
:103850001092F1031092F0030F91EF9008958130D0
:1038600059F40E9422118CEF91E00E94861190E0A1
:1038700080E00E94CD11E4CF823021F481E080937A
:10388000BC03DECF833069F40E94B1132FEF84E3D1
:103890009CE0215080409040E1F700C000000E9471
:1038A0001704843009F040C08091E903E12C00E066
:1038B00020E0882341F0813071F4E090EE03009124
:1038C000ED032091EC0341E06091EB038091EA036A
:1038D0000E946E18B5CF823041F4E090EE03009163
:1038E000ED032091EC0345E0EFCF833041F4E0900D
:1038F000EE030091ED032091EC0344E0E5CF84302A
:1039000041F4E090EE030091ED032091EC0342E0DE
:10391000DBCF853009F094CFE090EE030091ED030A
:103920002091EC0343E0D0CF853009F089CF80911E
:10393000E90390E00E94561A83CF1F920F920FB6B0
:103940000F9211242F933F934F935F936F937F9325
:103950008F939F93AF93BF93CF93DF93EF93FF9397
:10396000D091E900DF708091EC00C82FC17080FD1C
:10397000C0E81092E9008091F000877F8093F0000A
:1039800078940E94BC131092E9008091F000886046
:103990008093F000CD2BCF70C093E900FF91EF91A1
:1039A000DF91CF91BF91AF919F918F917F916F9157
:1039B0005F914F913F912F910F900FBE0F901F90ED
:1039C00018951F920F920FB60F9211242F933F93C9
:1039D0004F935F936F937F938F939F93AF93BF9317
:1039E000EF93FF938091E10082FF09C08091E20094
:1039F00082FF05C08091E1008B7F8093E100809180
:103A0000DA0080FF24C08091D80080FF20C0809120
:103A1000DA008E7F8093DA008091D90080FF9DC00C
:103A200080E189BD82E189BD09B400FEFDCF81E05E
:103A30008093750480915F04811109C00E94570230
:103A40000E9454038091E20084608093E2008091A0
:103A5000E10080FF17C08091E20080FF13C08091D9
:103A6000E2008E7F8093E2008091E200806180938B
:103A7000E2008091D80080628093D80019BC85E074
:103A8000809375048091E10084FF2BC08091E20057
:103A900084FF27C080E189BD82E189BD89B5982F67
:103AA000917080FFFBCF8091D8008F7D8093D800EC
:103AB0008091E1008F7E8093E1008091E2008F7E13
:103AC0008093E2008091E20081608093E200809127
:103AD0006C04882309F447C084E0809375048091C6
:103AE00075048091E10083FF27C08091E20083FF8D
:103AF00023C08091E100877F8093E10082E0809382
:103B0000750410926C048091E1008E7F8093E10037
:103B10008091E2008E7F8093E2008091E2008061DC
:103B20008093E20042E060E080E00E942203809106
:103B3000F00088608093F000FF91EF91BF91AF910A
:103B40009F918F917F916F915F914F913F912F91B5
:103B50000F900FBE0F901F90189519BC109275040E
:103B600010925F0474CF8091E30087FD93E09093FF
:103B70007504B5CF78941F921FB61F9211248F93AE
:103B80009F93AF93BF938091580490915904A09153
:103B90005A04B0915B040196A11DB11D8093580495
:103BA00090935904A0935A04B0935B04BF91AF91D2
:103BB0009F918F911F901FBE1F9018951F921FB647
:103BC0001F9211248F939F93AF93BF9380915704BB
:103BD000811113C08091580490915904A0915A0406
:103BE000B0915B044196A11DB11D80935804909340
:103BF0005904A0935A04B0935B04BF91AF919F9175
:103C00008F911F901FBE1F901895CDB7DEB762979A
:103C10000FB6F894DEBF0FBECDBF84B7877F84BFD9
:103C20000FB6F894A8958091600088618093600039
:103C3000109260000FBE80E890E00FB6F894809379
:103C40006100909361000FBE85B7806885BF85B71E
:103C5000806885BF85EE96E09093B3038093B203AE
:103C60000E9457020E9454038091E2008460809376
:103C7000E2007894809175048823A1F01091E90006
:103C80001F709091EC00892F817090FD80E8182BB7
:103C90001092E9008091E80083FD0E94BC131F7020
:103CA0001093E90082E084BD13E015BD9AEF97BD43
:103CB00080936E0081E90E94E70682E90E94E70690
:103CC00083E90E94E70687EF0E94E70686EF0E94DD
:103CD000E70685EF0E94E70684EF0E94E706E1EE23
:103CE000F3E0DF01212F1D922A95E9F7ECEDF3E0D7
:103CF000DF011D921A95E9F790E080E00E940F2302
:103D0000893E9E4F11F00E94031882E090E00E94CD
:103D100007238093E5030E9437179093D70380937E
:103D2000D6030E944517EFE3FCE93197F1F700C095
:103D300000000E9445178091E10380FF08C06FEFEB
:103D40007FEF90E080E00E9433230E94170483E01D
:103D500090E00E940723682F70E090E080E00E94CE
:103D600084096091D2037091D3038091D403909120
:103D7000D5030E948E118CE090E00E94072390E012
:103D8000B0E0A0E08093D8039093D903A093DA0326
:103D9000B093DB0382E090E090935601809355014D
:103DA00080917504843079F5809157019091580184
:103DB000A0915901B0915A01892B8A2B8B2B19F1B3
:103DC00080914E018F708093E90088E0EEE5F1E08C
:103DD000DE01119601900D928A95E1F750E040E0E6
:103DE00068E070E0CE0101960E94D90250E040E008
:103DF00062E070E085E591E00E94D9028091E800E0
:103E00008E778093E800E6E9F2E0E491E093E00346
:103E1000E8EFF3E030E020E0808181113CC0409188
:103E2000DF0381E0840F882379F1E8EFF3E09081EC
:103E3000981751F1399654E0E034F507C1F78093B3
:103E4000DF0399E0929FF001939FF00D1124E85059
:103E5000FC4F80832FB7F8948091580490915904B7
:103E6000A0915A04B0915B042FBF805F984DAF4F73
:103E7000BF4F81839283A383B48382E49AE19683C4
:103E80008583108617820EC091E0980F481709F4B9
:103E900084C0892FC8CF2F5F3F4F39962830310516
:103EA00009F0BACF0E94291A86E391E09093540456
:103EB00080935304E2E08E2E912CA12CB12CC12CC6
:103EC000D12C7601C3948091750470E4772E10E1B3
:103ED00002E1853009F4AFC00E944517882359F0EC
:103EE0008FB7F894409158045091590460915A0446
:103EF00070915B048FBFA1EEB3E0E6EEF3E010E05B
:103F000000E0302F8D919191981709F4A3C0292FCB
:103F1000282790E077247394422F472109F495C015
:103F200099873A87872191E009F490E09B870E9466
:103F300037048160782F9D878C8749855A856B85EA
:103F40008D850E947B1AF801EA51FC4F808178260A
:103F5000708206E714E0712C66ED462E64E0562E62
:103F6000D80119968C911997882309F48AC0813059
:103F700009F40EC2EC91E150E73038F4F0E0EE0FB6
:103F8000FF1FE457FC4F408051800E943704AC0172
:103F9000B801872DF20109957AC09093DF0382CF93
:103FA00080917504843019F11092570488E190E0F3
:103FB0000FB6F894A895809360000FBE70926000D1
:103FC00083B7817F846083BF83B7816083BF789428
:103FD000889583B78E7F83BF0FB6F894A89580919C
:103FE0006000886180936000109260000FBE809135
:103FF0006B04882301F10E9445178091E1039091A1
:10400000E203892B9091E303892BA9F019BD09BD27
:1040100009B400FEFDCF8091D8008F7D8093D80039
:104020008091E00082608093E0008091E00081FD5B
:10403000FCCF0E94B11380917504853009F4B0CF94
:104040000E94B1130E946F0447CF9F5F770C94309A
:1040500009F062CF0F5F1F4F0330110509F051CFF8
:104060008FEF8E878F87188A0E9437048160782FA0
:104070009A8B898B4E855F8568898A890E947B1A15
:1040800068CF20E040E060E0872D0E94100D73941F
:10409000015F1F4FFCE07F1263CF86E0EBE4F4E0AA
:1040A000DE01119601900D928A95E1F710914D0471
:1040B00000914E0460904F047090500410924D0493
:1040C00010924E0410924F0410925004812F802BB6
:1040D00009F448C08091490490914A040E94280440
:1040E0009C0190914504992309F428C2233331059A
:1040F000C8F19F3F19F09F5F90934504112359F039
:104100000E946B069FEF11160CF491E0899F802DA1
:10411000112480934D04002359F00E946B069FEFF9
:1041200010160CF491E0899F802D112480934E0489
:1041300030914D043323B1F020914E04222391F0AD
:1041400045EB3403C0011124992309F426C190934F
:104150004D0455EB250390011124332309F421C1AB
:1041600030934E04862D872909F448C08091470476
:10417000909148040E9428049C0190914404992342
:1041800009F4D7C125363105C8F19F3F19F09F5F6B
:1041900090934404662059F00E9449069FEF16143C
:1041A0000CF491E0899F802D112480934F04772097
:1041B00059F00E9449069FEF17140CF491E0899F73
:1041C000802D11248093500430914F043323B1F09B
:1041D00020915004222391F045EB3403C0011124B7
:1041E000992309F4E2C090934F0455EB2503900105
:1041F0001124332309F4DDC03093500480914D0421
:1042000090914E04892B90914F04892B90915004EA
:10421000892B11F00E94A90586E0FE013196ABE4DE
:10422000B4E001900D928A95E1F70E946F0490919D
:10423000E403891721F00E946F048093E4038091C6
:104240007504843009F58091570190915801A0912F
:104250005901B0915A01892B8A2B8B2BA9F080919F
:1042600049018F708093E9008091E80082FF0CC0C3
:104270009091F3008091F200892B09F09EC080910B
:10428000E8008B778093E800809175048430C9F44E
:104290008091570190915801A0915901B0915A0114
:1042A000892B8A2B8B2B69F0809144018F7080932E
:1042B000E9008091E80080FF04C083E491E00E945F
:1042C000A7028FB7F894409058045090590460901A
:1042D0005A0470905B048FBF809140049091410418
:1042E000A0914204B0914304A3019201281B390B11
:1042F0004A0B5B0BDA01C901181619061A061B06D0
:104300000CF0E1CD4092400450924104609242048E
:104310007092430480E4282E84E0382E08EF13E0E6
:10432000D8018C91882371F111966D917D918D91B9
:104330009C9114979B01AC01241935094609570932
:104340001216130614061506ECF017964D915C91A3
:1043500018971596ED91FC910995611571058105E8
:10436000910509F4DAC0F801218132814381548139
:10437000DC01CB01820F931FA41FB51F81839283A1
:10438000A383B483075F1F4F2016310649F69BCDE8
:10439000F80124854385628577CE81E080934D04C2
:1043A000D8CE81E080934E04DDCE81E080934F042F
:1043B0001CCF81E08093500421CF8091F3000091C5
:1043C000F200182F772473940115110509F45CCFBE
:1043D000809175048430F1F08FEF9FEF4091F303EB
:1043E0005091F4036091F5037091F6034115510566
:1043F00061057105E9F58093F203C092F303D09251
:10440000F403E092F503F092F6037092F703015083
:104410001109DACF8091570190915801A09159016B
:10442000B0915A01892B8A2B8B2BB1F280914901D3
:104430008F708093E9008091E80082FFCDCF90914A
:10444000F3008091F200892B81F08091F10090E0DF
:104450003091F3002091F200232B09F0BFCF20917F
:10446000E8002B772093E800B9CF8FEF9FEFF0CFD4
:10447000413051056105710571F499279093F1035D
:104480008093F0038092F3039092F403A092F503DB
:10449000B092F603BACF2091F0033091F10342308D
:1044A000510561057105B9F4982F8827282B392B00
:1044B0003093F1032093F00383E090E0A0E0B0E0BC
:1044C0008093F3039093F403A093F503B093F60362
:1044D0000E94081C9ACFF091F203F43058F0EDEFEF
:1044E000E40FF43029F4F0E0E751FC4F808302C080
:1044F000F530C9F34F5F5F4F6F4F7F4F4093F3032A
:104500005093F4036093F5037093F603215031093F
:104510003093F1032093F003DBCFD8011C92F80114
:1045200011821282138214821682158210861782DB
:1045300029CF2D32314008F02ACE60CE2D323140C5
:1045400008F0D9CD0FCE991B79E004C0991F9617BA
:1045500008F0961B881F7A95C9F780950895AA1BC5
:10456000BB1B51E107C0AA1FBB1FA617B70710F05E
:10457000A61BB70B881F991F5A95A9F78095909590
:10458000BC01CD01089597FB072E16F4009407D0C7
:1045900077FD09D00E94AF2207FC05D03EF490952C
:1045A00081959F4F0895709561957F4F0895EE0F07
:1045B000FF1F0590F491E02D099497FD1094002EB3
:1045C000083098F00850232F342F452F562F672F8F
:1045D000782F892F912DF4CF1594979587957795FE
:1045E000679557954795379527950A95AAF711240A
:1045F000002D0895FB01DC0104C08D91019080190C
:1046000021F441505040C8F7881B990B0895F9993F
:10461000FECF92BD81BDF89A992780B50895A8E193
:10462000B0E042E050E00C943B23262FF999FECFF6
:1046300092BD81BDF89A019700B4021639F01FBAF5
:1046400020BD0FB6F894FA9AF99A0FBE0895039612
:10465000272F0E9416230E941523252F0E94162320
:10466000242F0C9416230196272F0E9416230C94B6
:104670001523DC01CB01FC01F999FECF06C0F2BD88
:10468000E1BDF89A319600B40D9241505040B8F710
:1046900008955058BB27AA270E9461230C949725A0
:1046A0000E94892538F00E94902520F039F49F3F20
:1046B00019F426F40C945F250EF4E095E7FB0C94B6
:1046C0004B25E92F0E94A82558F3BA1762077307F4
:1046D0008407950720F079F4A6F50C94CA250EF40A
:1046E000E0950B2EBA2FA02D0B01B90190010C0102
:1046F000CA01A0011124FF27591B99F0593F50F41A
:10470000503E68F11A16F040A22F232F342F442771
:10471000585FF3CF469537952795A795F040539569
:10472000C9F77EF41F16BA0B620B730B840BBAF039
:104730009150A1F0FF0FBB1F661F771F881FC2F7A4
:104740000EC0BA0F621F731F841F48F487957795B8
:104750006795B795F7959E3F08F0B0CF9395880F72
:1047600008F09927EE0F9795879508950E942725C1
:1047700008F481E008950E94CF230C9497250E94AD
:10478000902558F00E94892540F029F45F3F29F0D8
:104790000C944B2551110C94CB250C945F250E9451
:1047A000A82568F39923B1F3552391F3951B550B75
:1047B000BB27AA2762177307840738F09F5F5F4FF4
:1047C000220F331F441FAA1FA9F335D00E2E3AF033
:1047D000E0E832D091505040E695001CCAF72BD04B
:1047E000FE2F29D0660F771F881FBB1F261737079C
:1047F0004807AB07B0E809F0BB0B802DBF01FF27CE
:1048000093585F4F3AF09E3F510578F00C944B253A
:104810000C94CB255F3FE4F3983ED4F386957795CF
:104820006795B795F7959F5FC9F7880F911D969586
:10483000879597F90895E1E0660F771F881FBB1FE2
:10484000621773078407BA0720F0621B730B840B8F
:10485000BA0BEE1F88F7E095089529F416F00C9432
:104860004B250C94CA250C945F250E94B025A8F313
:104870009638A0F707F80F92E8942BE33AEA48EB52
:104880005FE70E9462260F920F920F924DB75EB7BC
:104890000F920E941826ECEAF0E00E9462254F91E8
:1048A0005F91EF91FF91E595EE1FFF1F49F0FE57D5
:1048B000E0684427EE0F441FFA95E1F74195550B48
:1048C0000E94E2250F9007FE0C94D62508950E94C1
:1048D000B02588F09F5798F0B92F9927B751B0F0BD
:1048E000E1F0660F771F881F991F1AF0BA95C9F774
:1048F00014C0B13091F00E94CA25B1E008950C9423
:10490000CA25672F782F8827B85F39F0B93FCCF3D5
:10491000869577956795B395D9F73EF490958095F0
:10492000709561957F4F8F4F9F4F0895E89409C010
:1049300097FB3EF490958095709561957F4F8F4FD2
:104940009F4F9923A9F0F92F96E9BB279395F695E8
:10495000879577956795B795F111F8CFFAF4BB0F66
:1049600011F460FF1BC06F5F7F4F8F4F9F4F16C0CA
:10497000882311F096E911C0772321F09EE8872F54
:10498000762F05C0662371F096E8862F70E060E010
:104990002AF09A95660F771F881FDAF7880F969589
:1049A000879597F908950E94892520F019F00E94B3
:1049B000902550F40C945F250C94CB25E92F0E9490
:1049C000A82588F35523B1F3E7FB62177307840723
:1049D0009507A8F189F3E92FFF2788232AF031975B
:1049E000660F771F881FDAF7952F5527442332F07B
:1049F00091505040220F331F441FD2F7BB27E91BB1
:104A0000F50B621B730B840BB109B1F222F4620F38
:104A1000731F841FB11D31972AF0660F771F881FFF
:104A2000BB1FEFCF9150504062F041F0882332F02D
:104A3000660F771F881F91505040C1F793950C94D3
:104A400051258695779567959F5FD9F7F7CF990F91
:104A50000008550FAA0BE0E8FEEF16161706E80748
:104A6000F907C0F012161306E407F50798F0621B69
:104A7000730B840B950B39F40A2661F0232B242B3E
:104A8000252B21F408950A2609F4A140A6958FEF5D
:104A9000811D811D089597F99F6780E870E060E0AF
:104AA00008959F3F31F0915020F487957795679551
:104AB000B795880F911D9695879597F908959FEF63
:104AC00080EC0895DF93CF931F930F93FF92EF92A3
:104AD000DF927B018C01689406C0DA2EEF010E9400
:104AE0005F26FE01E894A591259135914591559158
:104AF000A6F3EF010E946123FE019701A801DA9459
:104B000069F7DF90EF90FF900F911F91CF91DF91A8
:104B1000089500240A941616170618060906089523
:104B200000240A9412161306140605060895092E89
:104B30000394000C11F4882352F0BB0F40F4BF2BF8
:104B400011F460FF04C06F5F7F4F8F4F9F4F089538
:104B500057FD9058440F551F59F05F3F71F047952E
:104B6000880F97FB991F61F09F3F79F08795089513
:104B7000121613061406551FF2CF4695F1DF08C032
:104B8000161617061806991FF1CF8695710561054F
:104B900008940895E894BB2766277727CB0197F9F7
:104BA00008950E94272508F48FEF08959B01AC011A
:104BB00060E070E080E89FE30C94BB230C944B25ED
:104BC0000C9451250E94B025D8F39923C9F3940F72
:104BD000511DA3F39150504094F059F0882332F0C6
:104BE000660F771F881F91505040C1F79E3F5105B7
:104BF0002CF7880F911D9695879597F908955F3F3B
:104C0000ACF0983E9CF0BB27869577956795B79555
:104C100008F4B1609395C1F7BB0F58F711F460FF2A
:104C2000E8CF6F5F7F4F8F4F9F4FE3CF0C94CB2523
:104C3000FA01DC01AA0FBB1F9B01AC01BF5728F48E
:104C4000222733274427507820C0B75190F4AB2F48
:104C50000024469537952795011CA395D2F3002093
:104C600071F0220F331F441FB395DAF30ED00C946A
:104C7000492361307105A0E88A07B94630F49B01E9
:104C8000AC016627772788279078309621F020831B
:104C900031834283538308950E945F260C949725A5
:104CA0000E94892538F00E94902520F0952311F06C
:104CB0000C944B250C945F2511240C94CB250E9459
:104CC000A82570F3959FC1F3950F50E0551F629F83
:104CD000F001729FBB27F00DB11D639FAA27F00D55
:104CE000B11DAA1F649F6627B00DA11D661F829F7C
:104CF0002227B00DA11D621F739FB00DA11D621F61
:104D0000839FA00D611D221F749F3327A00D611D7D
:104D1000231F849F600D211D822F762F6A2F11245F
:104D20009F5750409AF0F1F088234AF0EE0FFF1F92
:104D3000BB1F661F771F881F91505040A9F79E3FE9
:104D4000510580F00C944B250C94CB255F3FE4F388
:104D5000983ED4F3869577956795B795F795E7953F
:104D60009F5FC1F7FE2B880F911D9695879597F948
:104D700008959F930E94C3260F9007FCEE5F0C944A
:104D8000EC260C945F250E94B025D8F3E894E0E06F
:104D9000BB279F57F0F02AED3FE049EC06C0EE0F2D
:104DA000BB0F661F771F881F28F0B23A6207730790
:104DB000840728F0B25A620B730B840BE3959A9523
:104DC00072F7803830F49A95BB0F661F771F881FE3
:104DD000D2F790480C945325EF93E0FF07C0A2EA66
:104DE0002AED3FE049EC5FEB0E9461230E9497258A
:104DF0000F90039401FC9058E4EDF0E00C94002730
:104E00009F938F937F936F93FF93EF939B01AC01DD
:104E10000E944C26EF91FF910E9462252F913F91B5
:104E20004F915F910C944C26F894FFCF810ABA0AF7
:104E3000840A870ABC0A7B0A8A0A8A0A8D0ABC0A83
:104E4000930A9C0AAE0ABC0A6F0A7E0A720A780AA2
:104E5000BC0ABC0ABC0A750ABC0ABC0ABC0ABC0A69
:104E6000BC0ABC0ABC0ABC0ABC0ABC0ABC0ABC0A12
:104E7000BC0ABC0ABC0ABC0ABC0ABC0ABC0ABC0A02
:104E8000BC0ABC0A900A8A0BB10BD00BF00B100CB9
:104E9000300C500C700C900CB00CD00CF00C300D91
:104EA000560D6B0D800D950DAA0DBF0DD40DE90D9E
:104EB000FE0D130E280E4F1577151F1777151F17A8
:0A4EC000AA15CB151F17C816D5164A
:104ECA0000000000000000000000000000FFFF3C9E
:104EDA0000040000FF3200322BFFFF7800032BFF93
:104EEA00FF20030A00FFFF0A000AEA80FF88130A6C
:104EFA000000000000001404510B300B2C0B280B8F
:104F0A001304010284100000010510000001830847
:104F1A000000010000000000000000000000A120C5
:104F2A000000000002000000000000000000000075
:104F3A000000000000000005000000000000000062
:104F4A000000000000000008000000000000000649
:104F5A000000000000000004000000000000000241
:104F6A000000000000000009000000000000000727
:104F7A000000000000000003000000000000000123
:104F8A00000000000000000000000000E300E10053
:104F9A000400E300E1001900E300E1001600E2006A
:104FAA001C000000E3001A000000E100E30010000A
:104FBA00E100E3001200E100E3000800E100E30081
:104FCA000E00E100E3000B00E100E3001000E10045
:104FDA00E3000E00000000000000000000000000D6
:104FEA00E100E3000B00E30007000000E300080013
:104FFA000000000000000000E000E3000B00E300F6
:10500A001A000000A90000000000AA000000000029
:10501A00AB0000000000AE0000000000E300060044
:10502A000000E30019000000E30016000000E3009E
:10503A001D000000F10000000000E300E1000B0089
:10504A00E300E1001500E300E000060000000000B4
:10505A000000E20004000000E20019000000E20083
:10506A0016000000E2001C000000E200140000002C
:10507A00E000E1001000E000E1001200E000E100C1
:10508A000800E000E1000E00E000E1000B00E00093
:10509A0010000000E000E1000E0000000000000027
:1050AA00000000000000E000E1000B00E000070043
:1050BA000000E00008000000000000000000E0001E
:1050CA00E2000B00E0001A000000A9000000000046
:1050DA00AA0000000000AB0000000000AE000000C3
:1050EA000000E00006000000E00019000000E000F7
:1050FA0016000000E0001D000000F10000000000A2
:10510A00E0000B000000E00015000000E000E200F3
:10511A0006000203818283E200E900EA00B500B6D4
:10512A0000B700CD008301CC008A019201940121CD
:10513A0002230224022502260227022A02B300B40D
:10514A00006F007000919293F7F6F5F4D60EA40F53
:10515A00A10EDC0E5F0E3D0E1C13C104B704A2049F
:10516A0091047B048604040407040404040504046B
:02517A0004052A
:00000001FF
